{
  "contractName": "Campaign",
  "abi": [
    {
      "anonymous": false,
      "inputs": [
        {
          "indexed": true,
          "internalType": "uint256",
          "name": "campaignId",
          "type": "uint256"
        },
        {
          "indexed": false,
          "internalType": "uint256",
          "name": "time",
          "type": "uint256"
        },
        {
          "indexed": false,
          "internalType": "address",
          "name": "sender",
          "type": "address"
        }
      ],
      "name": "CampaignDeadlineExtended",
      "type": "event"
    },
    {
      "anonymous": false,
      "inputs": [
        {
          "indexed": true,
          "internalType": "uint256",
          "name": "campaignId",
          "type": "uint256"
        },
        {
          "indexed": false,
          "internalType": "address",
          "name": "user",
          "type": "address"
        },
        {
          "indexed": false,
          "internalType": "address",
          "name": "sender",
          "type": "address"
        }
      ],
      "name": "CampaignOwnerSet",
      "type": "event"
    },
    {
      "anonymous": false,
      "inputs": [
        {
          "indexed": true,
          "internalType": "uint256",
          "name": "campaignId",
          "type": "uint256"
        },
        {
          "indexed": false,
          "internalType": "address",
          "name": "newUser",
          "type": "address"
        },
        {
          "indexed": false,
          "internalType": "address",
          "name": "sender",
          "type": "address"
        }
      ],
      "name": "CampaignOwnershipTransferred",
      "type": "event"
    },
    {
      "anonymous": false,
      "inputs": [
        {
          "indexed": true,
          "internalType": "uint256",
          "name": "campaignId",
          "type": "uint256"
        },
        {
          "indexed": false,
          "internalType": "address",
          "name": "sender",
          "type": "address"
        }
      ],
      "name": "CampaignReported",
      "type": "event"
    },
    {
      "anonymous": false,
      "inputs": [
        {
          "indexed": false,
          "internalType": "uint256",
          "name": "campaignId",
          "type": "uint256"
        },
        {
          "indexed": false,
          "internalType": "address",
          "name": "sender",
          "type": "address"
        }
      ],
      "name": "CampaignReviewed",
      "type": "event"
    },
    {
      "anonymous": false,
      "inputs": [
        {
          "indexed": true,
          "internalType": "uint256",
          "name": "campaignId",
          "type": "uint256"
        },
        {
          "indexed": false,
          "internalType": "uint256",
          "name": "minimumContribution",
          "type": "uint256"
        },
        {
          "indexed": false,
          "internalType": "uint256",
          "name": "deadline",
          "type": "uint256"
        },
        {
          "indexed": false,
          "internalType": "uint256",
          "name": "goalType",
          "type": "uint256"
        },
        {
          "indexed": false,
          "internalType": "address",
          "name": "token",
          "type": "address"
        },
        {
          "indexed": false,
          "internalType": "address",
          "name": "sender",
          "type": "address"
        }
      ],
      "name": "CampaignSettingsUpdated",
      "type": "event"
    },
    {
      "anonymous": false,
      "inputs": [
        {
          "indexed": false,
          "internalType": "uint256",
          "name": "campaignId",
          "type": "uint256"
        },
        {
          "indexed": false,
          "internalType": "enum Campaign.CAMPAIGN_STATE",
          "name": "state",
          "type": "uint8"
        },
        {
          "indexed": false,
          "internalType": "address",
          "name": "sender",
          "type": "address"
        }
      ],
      "name": "CampaignStateChange",
      "type": "event"
    },
    {
      "anonymous": false,
      "inputs": [
        {
          "indexed": true,
          "internalType": "uint256",
          "name": "campaignId",
          "type": "uint256"
        },
        {
          "indexed": false,
          "internalType": "address",
          "name": "oldAddress",
          "type": "address"
        },
        {
          "indexed": false,
          "internalType": "address",
          "name": "newAddress",
          "type": "address"
        },
        {
          "indexed": false,
          "internalType": "address",
          "name": "sender",
          "type": "address"
        }
      ],
      "name": "CampaignUserDataTransferred",
      "type": "event"
    },
    {
      "anonymous": false,
      "inputs": [
        {
          "indexed": true,
          "internalType": "uint256",
          "name": "campaignId",
          "type": "uint256"
        },
        {
          "indexed": false,
          "internalType": "uint256",
          "name": "amount",
          "type": "uint256"
        },
        {
          "indexed": true,
          "internalType": "uint256",
          "name": "rewardId",
          "type": "uint256"
        },
        {
          "indexed": false,
          "internalType": "bool",
          "name": "withReward",
          "type": "bool"
        },
        {
          "indexed": false,
          "internalType": "address",
          "name": "sender",
          "type": "address"
        }
      ],
      "name": "ContributionMade",
      "type": "event"
    },
    {
      "anonymous": false,
      "inputs": [
        {
          "indexed": true,
          "internalType": "uint256",
          "name": "campaignId",
          "type": "uint256"
        },
        {
          "indexed": false,
          "internalType": "uint256",
          "name": "amount",
          "type": "uint256"
        },
        {
          "indexed": false,
          "internalType": "address",
          "name": "user",
          "type": "address"
        },
        {
          "indexed": false,
          "internalType": "address",
          "name": "sender",
          "type": "address"
        }
      ],
      "name": "ContributionWithdrawn",
      "type": "event"
    },
    {
      "anonymous": false,
      "inputs": [
        {
          "indexed": false,
          "internalType": "address",
          "name": "account",
          "type": "address"
        }
      ],
      "name": "Paused",
      "type": "event"
    },
    {
      "anonymous": false,
      "inputs": [
        {
          "indexed": true,
          "internalType": "uint256",
          "name": "requestId",
          "type": "uint256"
        },
        {
          "indexed": false,
          "internalType": "uint256",
          "name": "campaignId",
          "type": "uint256"
        },
        {
          "indexed": false,
          "internalType": "uint256",
          "name": "duration",
          "type": "uint256"
        },
        {
          "indexed": false,
          "internalType": "uint256",
          "name": "value",
          "type": "uint256"
        },
        {
          "indexed": false,
          "internalType": "address",
          "name": "recipient",
          "type": "address"
        },
        {
          "indexed": false,
          "internalType": "address",
          "name": "sender",
          "type": "address"
        }
      ],
      "name": "RequestAdded",
      "type": "event"
    },
    {
      "anonymous": false,
      "inputs": [
        {
          "indexed": true,
          "internalType": "uint256",
          "name": "requestId",
          "type": "uint256"
        },
        {
          "indexed": false,
          "internalType": "uint256",
          "name": "campaignId",
          "type": "uint256"
        },
        {
          "indexed": false,
          "internalType": "address",
          "name": "sender",
          "type": "address"
        }
      ],
      "name": "RequestComplete",
      "type": "event"
    },
    {
      "anonymous": false,
      "inputs": [
        {
          "indexed": true,
          "internalType": "uint256",
          "name": "requestId",
          "type": "uint256"
        },
        {
          "indexed": false,
          "internalType": "uint256",
          "name": "campaignId",
          "type": "uint256"
        },
        {
          "indexed": false,
          "internalType": "address",
          "name": "sender",
          "type": "address"
        }
      ],
      "name": "RequestVoided",
      "type": "event"
    },
    {
      "anonymous": false,
      "inputs": [
        {
          "indexed": true,
          "internalType": "bytes32",
          "name": "role",
          "type": "bytes32"
        },
        {
          "indexed": true,
          "internalType": "bytes32",
          "name": "previousAdminRole",
          "type": "bytes32"
        },
        {
          "indexed": true,
          "internalType": "bytes32",
          "name": "newAdminRole",
          "type": "bytes32"
        }
      ],
      "name": "RoleAdminChanged",
      "type": "event"
    },
    {
      "anonymous": false,
      "inputs": [
        {
          "indexed": true,
          "internalType": "bytes32",
          "name": "role",
          "type": "bytes32"
        },
        {
          "indexed": true,
          "internalType": "address",
          "name": "account",
          "type": "address"
        },
        {
          "indexed": true,
          "internalType": "address",
          "name": "sender",
          "type": "address"
        }
      ],
      "name": "RoleGranted",
      "type": "event"
    },
    {
      "anonymous": false,
      "inputs": [
        {
          "indexed": true,
          "internalType": "bytes32",
          "name": "role",
          "type": "bytes32"
        },
        {
          "indexed": true,
          "internalType": "address",
          "name": "account",
          "type": "address"
        },
        {
          "indexed": true,
          "internalType": "address",
          "name": "sender",
          "type": "address"
        }
      ],
      "name": "RoleRevoked",
      "type": "event"
    },
    {
      "anonymous": false,
      "inputs": [
        {
          "indexed": true,
          "internalType": "uint256",
          "name": "campaignId",
          "type": "uint256"
        },
        {
          "indexed": false,
          "internalType": "uint256",
          "name": "amount",
          "type": "uint256"
        },
        {
          "indexed": false,
          "internalType": "address",
          "name": "sender",
          "type": "address"
        }
      ],
      "name": "TargetMet",
      "type": "event"
    },
    {
      "anonymous": false,
      "inputs": [
        {
          "indexed": false,
          "internalType": "address",
          "name": "account",
          "type": "address"
        }
      ],
      "name": "Unpaused",
      "type": "event"
    },
    {
      "anonymous": false,
      "inputs": [
        {
          "indexed": false,
          "internalType": "uint256",
          "name": "requestId",
          "type": "uint256"
        },
        {
          "indexed": false,
          "internalType": "uint8",
          "name": "support",
          "type": "uint8"
        },
        {
          "indexed": false,
          "internalType": "uint256",
          "name": "campaignId",
          "type": "uint256"
        },
        {
          "indexed": false,
          "internalType": "address",
          "name": "sender",
          "type": "address"
        }
      ],
      "name": "VoteCancelled",
      "type": "event"
    },
    {
      "anonymous": false,
      "inputs": [
        {
          "indexed": false,
          "internalType": "uint256",
          "name": "requestId",
          "type": "uint256"
        },
        {
          "indexed": false,
          "internalType": "uint8",
          "name": "support",
          "type": "uint8"
        },
        {
          "indexed": false,
          "internalType": "uint256",
          "name": "campaignId",
          "type": "uint256"
        },
        {
          "indexed": false,
          "internalType": "address",
          "name": "sender",
          "type": "address"
        }
      ],
      "name": "Voted",
      "type": "event"
    },
    {
      "inputs": [],
      "name": "DEFAULT_ADMIN_ROLE",
      "outputs": [
        {
          "internalType": "bytes32",
          "name": "",
          "type": "bytes32"
        }
      ],
      "stateMutability": "view",
      "type": "function"
    },
    {
      "inputs": [],
      "name": "acceptedToken",
      "outputs": [
        {
          "internalType": "address",
          "name": "",
          "type": "address"
        }
      ],
      "stateMutability": "view",
      "type": "function"
    },
    {
      "inputs": [],
      "name": "allowContributionAfterTargetIsMet",
      "outputs": [
        {
          "internalType": "bool",
          "name": "",
          "type": "bool"
        }
      ],
      "stateMutability": "view",
      "type": "function"
    },
    {
      "inputs": [
        {
          "internalType": "address",
          "name": "",
          "type": "address"
        }
      ],
      "name": "approvers",
      "outputs": [
        {
          "internalType": "bool",
          "name": "",
          "type": "bool"
        }
      ],
      "stateMutability": "view",
      "type": "function"
    },
    {
      "inputs": [],
      "name": "approversCount",
      "outputs": [
        {
          "internalType": "uint256",
          "name": "",
          "type": "uint256"
        }
      ],
      "stateMutability": "view",
      "type": "function"
    },
    {
      "inputs": [],
      "name": "campaignBalance",
      "outputs": [
        {
          "internalType": "uint256",
          "name": "",
          "type": "uint256"
        }
      ],
      "stateMutability": "view",
      "type": "function"
    },
    {
      "inputs": [],
      "name": "campaignID",
      "outputs": [
        {
          "internalType": "uint256",
          "name": "",
          "type": "uint256"
        }
      ],
      "stateMutability": "view",
      "type": "function"
    },
    {
      "inputs": [],
      "name": "campaignState",
      "outputs": [
        {
          "internalType": "enum Campaign.CAMPAIGN_STATE",
          "name": "",
          "type": "uint8"
        }
      ],
      "stateMutability": "view",
      "type": "function"
    },
    {
      "inputs": [],
      "name": "currentRunningRequest",
      "outputs": [
        {
          "internalType": "uint256",
          "name": "",
          "type": "uint256"
        }
      ],
      "stateMutability": "view",
      "type": "function"
    },
    {
      "inputs": [],
      "name": "deadline",
      "outputs": [
        {
          "internalType": "uint256",
          "name": "",
          "type": "uint256"
        }
      ],
      "stateMutability": "view",
      "type": "function"
    },
    {
      "inputs": [],
      "name": "deadlineSetTimes",
      "outputs": [
        {
          "internalType": "uint256",
          "name": "",
          "type": "uint256"
        }
      ],
      "stateMutability": "view",
      "type": "function"
    },
    {
      "inputs": [],
      "name": "finalizedRequestCount",
      "outputs": [
        {
          "internalType": "uint256",
          "name": "",
          "type": "uint256"
        }
      ],
      "stateMutability": "view",
      "type": "function"
    },
    {
      "inputs": [
        {
          "internalType": "bytes32",
          "name": "role",
          "type": "bytes32"
        }
      ],
      "name": "getRoleAdmin",
      "outputs": [
        {
          "internalType": "bytes32",
          "name": "",
          "type": "bytes32"
        }
      ],
      "stateMutability": "view",
      "type": "function"
    },
    {
      "inputs": [],
      "name": "goalType",
      "outputs": [
        {
          "internalType": "enum Campaign.GOALTYPE",
          "name": "",
          "type": "uint8"
        }
      ],
      "stateMutability": "view",
      "type": "function"
    },
    {
      "inputs": [
        {
          "internalType": "bytes32",
          "name": "role",
          "type": "bytes32"
        },
        {
          "internalType": "address",
          "name": "account",
          "type": "address"
        }
      ],
      "name": "grantRole",
      "outputs": [],
      "stateMutability": "nonpayable",
      "type": "function"
    },
    {
      "inputs": [
        {
          "internalType": "bytes32",
          "name": "role",
          "type": "bytes32"
        },
        {
          "internalType": "address",
          "name": "account",
          "type": "address"
        }
      ],
      "name": "hasRole",
      "outputs": [
        {
          "internalType": "bool",
          "name": "",
          "type": "bool"
        }
      ],
      "stateMutability": "view",
      "type": "function"
    },
    {
      "inputs": [
        {
          "internalType": "uint256",
          "name": "",
          "type": "uint256"
        },
        {
          "internalType": "address",
          "name": "",
          "type": "address"
        }
      ],
      "name": "hasVoted",
      "outputs": [
        {
          "internalType": "bool",
          "name": "",
          "type": "bool"
        }
      ],
      "stateMutability": "view",
      "type": "function"
    },
    {
      "inputs": [],
      "name": "minimumContribution",
      "outputs": [
        {
          "internalType": "uint256",
          "name": "",
          "type": "uint256"
        }
      ],
      "stateMutability": "view",
      "type": "function"
    },
    {
      "inputs": [],
      "name": "paused",
      "outputs": [
        {
          "internalType": "bool",
          "name": "",
          "type": "bool"
        }
      ],
      "stateMutability": "view",
      "type": "function"
    },
    {
      "inputs": [
        {
          "internalType": "bytes32",
          "name": "role",
          "type": "bytes32"
        },
        {
          "internalType": "address",
          "name": "account",
          "type": "address"
        }
      ],
      "name": "renounceRole",
      "outputs": [],
      "stateMutability": "nonpayable",
      "type": "function"
    },
    {
      "inputs": [],
      "name": "reportCount",
      "outputs": [
        {
          "internalType": "uint256",
          "name": "",
          "type": "uint256"
        }
      ],
      "stateMutability": "view",
      "type": "function"
    },
    {
      "inputs": [
        {
          "internalType": "address",
          "name": "",
          "type": "address"
        }
      ],
      "name": "reported",
      "outputs": [
        {
          "internalType": "bool",
          "name": "",
          "type": "bool"
        }
      ],
      "stateMutability": "view",
      "type": "function"
    },
    {
      "inputs": [],
      "name": "requestCount",
      "outputs": [
        {
          "internalType": "uint256",
          "name": "",
          "type": "uint256"
        }
      ],
      "stateMutability": "view",
      "type": "function"
    },
    {
      "inputs": [
        {
          "internalType": "uint256",
          "name": "",
          "type": "uint256"
        },
        {
          "internalType": "address",
          "name": "",
          "type": "address"
        }
      ],
      "name": "requestSupport",
      "outputs": [
        {
          "internalType": "uint8",
          "name": "",
          "type": "uint8"
        }
      ],
      "stateMutability": "view",
      "type": "function"
    },
    {
      "inputs": [
        {
          "internalType": "uint256",
          "name": "",
          "type": "uint256"
        }
      ],
      "name": "requests",
      "outputs": [
        {
          "internalType": "address payable",
          "name": "recipient",
          "type": "address"
        },
        {
          "internalType": "bool",
          "name": "complete",
          "type": "bool"
        },
        {
          "internalType": "uint256",
          "name": "value",
          "type": "uint256"
        },
        {
          "internalType": "uint256",
          "name": "approvalCount",
          "type": "uint256"
        },
        {
          "internalType": "uint256",
          "name": "againstCount",
          "type": "uint256"
        },
        {
          "internalType": "uint256",
          "name": "abstainedCount",
          "type": "uint256"
        },
        {
          "internalType": "uint256",
          "name": "duration",
          "type": "uint256"
        },
        {
          "internalType": "bool",
          "name": "void",
          "type": "bool"
        }
      ],
      "stateMutability": "view",
      "type": "function"
    },
    {
      "inputs": [],
      "name": "reviewCount",
      "outputs": [
        {
          "internalType": "uint256",
          "name": "",
          "type": "uint256"
        }
      ],
      "stateMutability": "view",
      "type": "function"
    },
    {
      "inputs": [
        {
          "internalType": "address",
          "name": "",
          "type": "address"
        }
      ],
      "name": "reviewed",
      "outputs": [
        {
          "internalType": "bool",
          "name": "",
          "type": "bool"
        }
      ],
      "stateMutability": "view",
      "type": "function"
    },
    {
      "inputs": [
        {
          "internalType": "bytes32",
          "name": "role",
          "type": "bytes32"
        },
        {
          "internalType": "address",
          "name": "account",
          "type": "address"
        }
      ],
      "name": "revokeRole",
      "outputs": [],
      "stateMutability": "nonpayable",
      "type": "function"
    },
    {
      "inputs": [],
      "name": "root",
      "outputs": [
        {
          "internalType": "address",
          "name": "",
          "type": "address"
        }
      ],
      "stateMutability": "view",
      "type": "function"
    },
    {
      "inputs": [
        {
          "internalType": "bytes4",
          "name": "interfaceId",
          "type": "bytes4"
        }
      ],
      "name": "supportsInterface",
      "outputs": [
        {
          "internalType": "bool",
          "name": "",
          "type": "bool"
        }
      ],
      "stateMutability": "view",
      "type": "function"
    },
    {
      "inputs": [],
      "name": "target",
      "outputs": [
        {
          "internalType": "uint256",
          "name": "",
          "type": "uint256"
        }
      ],
      "stateMutability": "view",
      "type": "function"
    },
    {
      "inputs": [],
      "name": "totalCampaignContribution",
      "outputs": [
        {
          "internalType": "uint256",
          "name": "",
          "type": "uint256"
        }
      ],
      "stateMutability": "view",
      "type": "function"
    },
    {
      "inputs": [
        {
          "internalType": "address",
          "name": "",
          "type": "address"
        }
      ],
      "name": "userContributionWithdrawn",
      "outputs": [
        {
          "internalType": "bool",
          "name": "",
          "type": "bool"
        }
      ],
      "stateMutability": "view",
      "type": "function"
    },
    {
      "inputs": [
        {
          "internalType": "address",
          "name": "",
          "type": "address"
        }
      ],
      "name": "userTotalContribution",
      "outputs": [
        {
          "internalType": "uint256",
          "name": "",
          "type": "uint256"
        }
      ],
      "stateMutability": "view",
      "type": "function"
    },
    {
      "inputs": [],
      "name": "withdrawalsPaused",
      "outputs": [
        {
          "internalType": "bool",
          "name": "",
          "type": "bool"
        }
      ],
      "stateMutability": "view",
      "type": "function"
    },
    {
      "inputs": [
        {
          "internalType": "contract CampaignFactory",
          "name": "_campaignFactory",
          "type": "address"
        },
        {
          "internalType": "contract CampaignRewards",
          "name": "_camaignRewards",
          "type": "address"
        },
        {
          "internalType": "address",
          "name": "_root",
          "type": "address"
        },
        {
          "internalType": "uint256",
          "name": "_campaignId",
          "type": "uint256"
        }
      ],
      "name": "__Campaign_init",
      "outputs": [],
      "stateMutability": "nonpayable",
      "type": "function"
    },
    {
      "inputs": [
        {
          "internalType": "address",
          "name": "_newRoot",
          "type": "address"
        }
      ],
      "name": "transferCampaignOwnership",
      "outputs": [],
      "stateMutability": "nonpayable",
      "type": "function"
    },
    {
      "inputs": [
        {
          "internalType": "address",
          "name": "_oldAddress",
          "type": "address"
        },
        {
          "internalType": "address",
          "name": "_newAddress",
          "type": "address"
        }
      ],
      "name": "transferCampaignUserData",
      "outputs": [],
      "stateMutability": "nonpayable",
      "type": "function"
    },
    {
      "inputs": [
        {
          "internalType": "uint256",
          "name": "_target",
          "type": "uint256"
        },
        {
          "internalType": "uint256",
          "name": "_minimumContribution",
          "type": "uint256"
        },
        {
          "internalType": "uint256",
          "name": "_duration",
          "type": "uint256"
        },
        {
          "internalType": "uint256",
          "name": "_goalType",
          "type": "uint256"
        },
        {
          "internalType": "address",
          "name": "_token",
          "type": "address"
        },
        {
          "internalType": "bool",
          "name": "_allowContributionAfterTargetIsMet",
          "type": "bool"
        }
      ],
      "name": "setCampaignSettings",
      "outputs": [],
      "stateMutability": "nonpayable",
      "type": "function"
    },
    {
      "inputs": [
        {
          "internalType": "uint256",
          "name": "_time",
          "type": "uint256"
        }
      ],
      "name": "extendDeadline",
      "outputs": [],
      "stateMutability": "nonpayable",
      "type": "function"
    },
    {
      "inputs": [
        {
          "internalType": "uint8",
          "name": "_count",
          "type": "uint8"
        }
      ],
      "name": "setDeadlineSetTimes",
      "outputs": [],
      "stateMutability": "nonpayable",
      "type": "function"
    },
    {
      "inputs": [
        {
          "internalType": "address",
          "name": "_token",
          "type": "address"
        },
        {
          "internalType": "uint256",
          "name": "_rewardId",
          "type": "uint256"
        },
        {
          "internalType": "bool",
          "name": "_withReward",
          "type": "bool"
        }
      ],
      "name": "contribute",
      "outputs": [],
      "stateMutability": "payable",
      "type": "function"
    },
    {
      "inputs": [
        {
          "internalType": "address payable",
          "name": "_wallet",
          "type": "address"
        }
      ],
      "name": "withdrawOwnContribution",
      "outputs": [],
      "stateMutability": "nonpayable",
      "type": "function"
    },
    {
      "inputs": [
        {
          "internalType": "address",
          "name": "_user",
          "type": "address"
        },
        {
          "internalType": "address payable",
          "name": "_wallet",
          "type": "address"
        }
      ],
      "name": "withdrawContributionForUser",
      "outputs": [],
      "stateMutability": "nonpayable",
      "type": "function"
    },
    {
      "inputs": [
        {
          "internalType": "address",
          "name": "_user",
          "type": "address"
        }
      ],
      "name": "userContributionLoss",
      "outputs": [
        {
          "internalType": "uint256",
          "name": "",
          "type": "uint256"
        }
      ],
      "stateMutability": "view",
      "type": "function"
    },
    {
      "inputs": [
        {
          "internalType": "address payable",
          "name": "_recipient",
          "type": "address"
        },
        {
          "internalType": "uint256",
          "name": "_value",
          "type": "uint256"
        },
        {
          "internalType": "uint256",
          "name": "_duration",
          "type": "uint256"
        }
      ],
      "name": "createRequest",
      "outputs": [],
      "stateMutability": "nonpayable",
      "type": "function"
    },
    {
      "inputs": [
        {
          "internalType": "uint256",
          "name": "_requestId",
          "type": "uint256"
        }
      ],
      "name": "voidRequest",
      "outputs": [],
      "stateMutability": "nonpayable",
      "type": "function"
    },
    {
      "inputs": [
        {
          "internalType": "uint256",
          "name": "_requestId",
          "type": "uint256"
        },
        {
          "internalType": "uint8",
          "name": "_support",
          "type": "uint8"
        }
      ],
      "name": "voteOnRequest",
      "outputs": [],
      "stateMutability": "nonpayable",
      "type": "function"
    },
    {
      "inputs": [
        {
          "internalType": "uint256",
          "name": "_requestId",
          "type": "uint256"
        }
      ],
      "name": "cancelVote",
      "outputs": [],
      "stateMutability": "nonpayable",
      "type": "function"
    },
    {
      "inputs": [
        {
          "internalType": "uint256",
          "name": "_requestId",
          "type": "uint256"
        }
      ],
      "name": "finalizeRequest",
      "outputs": [],
      "stateMutability": "nonpayable",
      "type": "function"
    },
    {
      "inputs": [],
      "name": "reviewMode",
      "outputs": [],
      "stateMutability": "nonpayable",
      "type": "function"
    },
    {
      "inputs": [],
      "name": "reviewCampaignPerformance",
      "outputs": [],
      "stateMutability": "nonpayable",
      "type": "function"
    },
    {
      "inputs": [],
      "name": "markCampaignComplete",
      "outputs": [],
      "stateMutability": "nonpayable",
      "type": "function"
    },
    {
      "inputs": [],
      "name": "reportCampaign",
      "outputs": [],
      "stateMutability": "nonpayable",
      "type": "function"
    },
    {
      "inputs": [
        {
          "internalType": "uint256",
          "name": "_state",
          "type": "uint256"
        }
      ],
      "name": "setCampaignState",
      "outputs": [],
      "stateMutability": "nonpayable",
      "type": "function"
    },
    {
      "inputs": [
        {
          "internalType": "bool",
          "name": "_state",
          "type": "bool"
        }
      ],
      "name": "toggleWithdrawalState",
      "outputs": [],
      "stateMutability": "nonpayable",
      "type": "function"
    },
    {
      "inputs": [],
      "name": "unpauseCampaign",
      "outputs": [],
      "stateMutability": "nonpayable",
      "type": "function"
    },
    {
      "inputs": [],
      "name": "pauseCampaign",
      "outputs": [],
      "stateMutability": "nonpayable",
      "type": "function"
    }
  ],
  "bytecode": "0x608060405234801561001057600080fd5b50615f9a80620000216000396000f3fe6080604052600436106102915760003560e01c806301ffc9a71461029657806303441006146102cc5780630a144391146102ee5780630d10f3b51461030e578063185c6f84146103235780631c8e541b146103455780631f93da251461035a578063248a9ca31461036f57806329dcb0cf1461038f5780632f2ff15d146103a457806334d71e17146103c457806336568abe146103d957806336cb9588146103f9578063389b75331461041957806338c21911146104395780633eaa91f51461046657806343519c481461048657806343859632146104a657806343a1a776146104c6578063451c3d80146104db57806349ed2fa9146104fd57806357414c37146105125780635a4a7939146105275780635badbe4c146105475780635c975abb1461055c5780636c0ddc1214610571578063714bf908146105865780637178f036146105a657806381d12c58146105c657806382fde093146105fa57806383bcbc4b1461060f578063883c46f01461062f57806388a315411461064f5780638ef9af721461066f57806391d1485414610684578063937e09b1146106a457806394a91de8146106b957806395cbd157146106cc57806398407647146106ee578063a217fddf1461070e578063a32d646914610723578063a364008a14610743578063b3035efa14610763578063bacbe2da14610783578063d2411d19146107a3578063d2a8f6a4146107b8578063d4b83992146107cd578063d547741f146107e2578063d753ca7c14610802578063d75c3cb714610822578063e9f2838e14610842578063ebf0c71714610857578063ebf524091461086c578063efbb53c914610881578063eff5924f146108a1578063f3f08015146108b6578063f4c9b1fd146108d6578063fc7a96a0146108f8575b600080fd5b3480156102a257600080fd5b506102b66102b1366004615062565b61090d565b6040516102c39190615304565b60405180910390f35b3480156102d857600080fd5b506102ec6102e7366004615026565b61093a565b005b3480156102fa57600080fd5b506102b6610309366004614e0c565b610d7a565b34801561031a57600080fd5b506102ec610d90565b34801561032f57600080fd5b50610338610df7565b6040516102c3919061530f565b34801561035157600080fd5b506102ec610dfe565b34801561036657600080fd5b50610338610e62565b34801561037b57600080fd5b5061033861038a366004615026565b610e69565b34801561039b57600080fd5b50610338610e7e565b3480156103b057600080fd5b506102ec6103bf36600461503e565b610e85565b3480156103d057600080fd5b506102ec610eae565b3480156103e557600080fd5b506102ec6103f436600461503e565b6110fa565b34801561040557600080fd5b506102ec610414366004615026565b611140565b34801561042557600080fd5b506102ec610434366004615026565b611217565b34801561044557600080fd5b5061045961045436600461503e565b6114e1565b6040516102c39190615dfa565b34801561047257600080fd5b506102b6610481366004614e0c565b611501565b34801561049257600080fd5b506102ec6104a1366004614e78565b611517565b3480156104b257600080fd5b506102b66104c136600461503e565b6115a2565b3480156104d257600080fd5b506103386115c2565b3480156104e757600080fd5b506104f06115c9565b6040516102c39190615233565b34801561050957600080fd5b506103386115d9565b34801561051e57600080fd5b506103386115e0565b34801561053357600080fd5b506102ec61054236600461517a565b6115e7565b34801561055357600080fd5b506103386116a4565b34801561056857600080fd5b506102b66116ab565b34801561057d57600080fd5b506102ec6116b4565b34801561059257600080fd5b506102b66105a1366004614e0c565b61197a565b3480156105b257600080fd5b506102ec6105c136600461514f565b611990565b3480156105d257600080fd5b506105e66105e1366004615026565b611d7c565b6040516102c3989796959493929190615247565b34801561060657600080fd5b50610338611de3565b34801561061b57600080fd5b506102ec61062a36600461508a565b611dea565b34801561063b57600080fd5b506102ec61064a366004614fee565b611f65565b34801561065b57600080fd5b506102ec61066a366004614e78565b611fbc565b34801561067b57600080fd5b506103386121c2565b34801561069057600080fd5b506102b661069f36600461503e565b6121c9565b3480156106b057600080fd5b506103386121f6565b6102ec6106c7366004614f4c565b6121fd565b3480156106d857600080fd5b506106e16125b8565b6040516102c39190615326565b3480156106fa57600080fd5b506102ec610709366004614e0c565b6125c1565b34801561071a57600080fd5b506103386126b1565b34801561072f57600080fd5b506102b661073e366004614e0c565b6126b6565b34801561074f57600080fd5b506102ec61075e366004615026565b6126cc565b34801561076f57600080fd5b506102ec61077e3660046150f2565b6128f9565b34801561078f57600080fd5b506102ec61079e366004615026565b612cf2565b3480156107af57600080fd5b506103386130ad565b3480156107c457600080fd5b506102ec6130b4565b3480156107d957600080fd5b5061033861327d565b3480156107ee57600080fd5b506102ec6107fd36600461503e565b613284565b34801561080e57600080fd5b5061033861081d366004614e0c565b6132a3565b34801561082e57600080fd5b5061033861083d366004614e0c565b6132b6565b34801561084e57600080fd5b506102b6613362565b34801561086357600080fd5b506104f0613373565b34801561087857600080fd5b506102ec613383565b34801561088d57600080fd5b506102ec61089c366004614e0c565b613594565b3480156108ad57600080fd5b5061033861362b565b3480156108c257600080fd5b506102ec6108d1366004614e44565b613632565b3480156108e257600080fd5b506108eb613b80565b6040516102c39190615318565b34801561090457600080fd5b506102b6613b8e565b60006001600160e01b03198216637965db0b60e01b1480610932575061093282613b9f565b90505b919050565b60fb54610956906201000090046001600160a01b031633613bb8565b8061096757506109676000336121c9565b61098c5760405162461bcd60e51b815260040161098390615abd565b60405180910390fd5b6000806109b160fb60029054906101000a90046001600160a01b031661010654613c3e565b909550935084925050811590506109c55750805b6109e15760405162461bcd60e51b8152600401610983906154a3565b336000610a0360fb60029054906101000a90046001600160a01b031683613d11565b9150819050610a245760405162461bcd60e51b815260040161098390615373565b610a2c6116ab565b15610a495760405162461bcd60e51b81526004016109839061573f565b600260c9541415610a6c5760405162461bcd60e51b815260040161098390615c2b565b600260c981905550600060ff8681548110610a9757634e487b7160e01b600052603260045260246000fd5b906000526020600020906007020190506000610ad6610acd610abc8460020154613e60565b610ac861010a54613e60565b613e7a565b61010554613ea4565b90506033610aef81676765c793fa10079d601b1b613ebe565b82511015610b0f5760405162461bcd60e51b8152600401610983906159aa565b8254600160a01b900460ff1615610b385760405162461bcd60e51b81526004016109839061571c565b6000610b75610b6b610b6260fb60029054906101000a90046001600160a01b031661010654613eca565b6101055461405d565b8560010154613ea4565b905060006040518060400160405280610b9f8460000151886001015461407790919063ffffffff16565b8152835160209182015260408051808201825288546001600160a01b03908116825260fb548351632066534160e21b8152935195965060009592948581019462010000909204909216926381994d0492600480840193919291829003018186803b158015610c0c57600080fd5b505afa158015610c20573d6000803e3d6000fd5b505050506040513d601f19601f82011682018060405250810190610c449190614e28565b6001600160a01b03169052865460ff60a01b1916600160a01b17875561010e54909150610c72906001614083565b61010e55600186015461010854610c8891614077565b6101085560fb548351610cac916201000090046001600160a01b031690309061408f565b60005b6002811015610d2a5761010454610d18906001600160a01b0316838360028110610ce957634e487b7160e01b600052603260045260246000fd5b6020020151858460028110610d0e57634e487b7160e01b600052603260045260246000fd5b60200201516140f4565b80610d2281615ead565b915050610caf565b508a7f9217de84b11ba0f33fb9dd0eba8e8f6559c0304077fd847c80878c6b9ce03c806101065433604051610d60929190615d03565b60405180910390a25050600160c955505050505050505050565b6101116020526000908152604090205460ff1681565b610d986116ab565b15610db55760405162461bcd60e51b81526004016109839061573f565b60fb54610dd1906201000090046001600160a01b031633613bb8565b610ded5760405162461bcd60e51b815260040161098390615639565b610df561414a565b565b6101105481565b610e066116ab565b610e225760405162461bcd60e51b81526004016109839061541b565b60fb54610e3e906201000090046001600160a01b031633613bb8565b610e5a5760405162461bcd60e51b815260040161098390615639565b610df56141bc565b61010e5481565b60009081526065602052604090206001015490565b61010c5481565b610e8e82610e69565b610e9f81610e9a61420f565b614213565b610ea98383614277565b505050565b60fb54610eca906201000090046001600160a01b031633613bb8565b80610edb5750610edb6000336121c9565b610ef75760405162461bcd60e51b815260040161098390615abd565b600080610f1c60fb60029054906101000a90046001600160a01b031661010654613c3e565b90955093508492505081159050610f305750805b610f4c5760405162461bcd60e51b8152600401610983906154a3565b336000610f6e60fb60029054906101000a90046001600160a01b031683613d11565b9150819050610f8f5760405162461bcd60e51b815260040161098390615373565b610f976116ab565b15610fb45760405162461bcd60e51b81526004016109839061573f565b600260fb54610100900460ff166005811115610fe057634e487b7160e01b600052602160045260246000fd5b14806110155750600160fb54610100900460ff16600581111561101357634e487b7160e01b600052602160045260246000fd5b145b6110315760405162461bcd60e51b81526004016109839061597c565b600161010e5410156110555760405162461bcd60e51b815260040161098390615474565b60ff61010f548154811061107957634e487b7160e01b600052603260045260246000fd5b6000918252602090912060079091020154600160a01b900460ff166110b05760405162461bcd60e51b81526004016109839061587f565b60fb805461ff0019166103001790556110c761414a565b600080516020615f45833981519152610106546003336040516110ec93929190615d58565b60405180910390a150505050565b61110261420f565b6001600160a01b0316816001600160a01b0316146111325760405162461bcd60e51b815260040161098390615cb4565b61113c82826142fe565b5050565b60fb5461115c906201000090046001600160a01b031633613bb8565b6111785760405162461bcd60e51b815260040161098390615639565b80600581111561119857634e487b7160e01b600052602160045260246000fd5b60fb805461ff0019166101008360058111156111c457634e487b7160e01b600052602160045260246000fd5b0217905550600080516020615f45833981519152610106548260058111156111fc57634e487b7160e01b600052602160045260246000fd5b3360405161120c93929190615d58565b60405180910390a150565b60fb54611233906201000090046001600160a01b031633613bb8565b8061124457506112446000336121c9565b6112605760405162461bcd60e51b815260040161098390615abd565b33600061128260fb60029054906101000a90046001600160a01b031683613d11565b91508190506112a35760405162461bcd60e51b815260040161098390615373565b6000806112c860fb60029054906101000a90046001600160a01b031661010654613c3e565b909550935084925050811590506112dc5750805b6112f85760405162461bcd60e51b8152600401610983906154a3565b600260c954141561131b5760405162461bcd60e51b815260040161098390615c2b565b600260c9556113286116ab565b156113455760405162461bcd60e51b81526004016109839061573f565b61010c54421161135457600080fd5b60fb54604080518082019091526016815275191958591b1a5b9954dd1c9a5ad95cd05b1b1bddd95960521b602082015261139d916201000090046001600160a01b031690614383565b61010d54106113be5760405162461bcd60e51b8152600401610983906155b1565b60fb5460408051808201909152601481527336b0bc2232b0b23634b732a2bc3a32b739b4b7b760611b6020820152611405916201000090046001600160a01b031690614383565b851115801561145a575060fb5460408051808201909152601481527336b4b72232b0b23634b732a2bc3a32b739b4b7b760611b6020820152611456916201000090046001600160a01b031690614383565b8510155b6114765760405162461bcd60e51b8152600401610983906153cc565b6114804286614083565b61010c5561010d54611493906001614083565b61010d55610106546040517f4a2d52750558b1d8cc2af6564a4cf717384702cae55b9853793a4410cfc86890906114cd9088903390615d03565b60405180910390a25050600160c955505050565b60fd60209081526000928352604080842090915290825290205460ff1681565b6101146020526000908152604090205460ff1681565b60fb54611533906201000090046001600160a01b031633613bb8565b61154f5760405162461bcd60e51b815260040161098390615639565b600260c95414156115725760405162461bcd60e51b815260040161098390615c2b565b600260c95561010454600160a81b900460ff161561158f57600080fd5b6115998282614402565b5050600160c955565b60fe60209081526000928352604080842090915290825290205460ff1681565b6101085481565b610104546001600160a01b031681565b6101065481565b61010d5481565b60fb54611603906201000090046001600160a01b031633613bb8565b61161f5760405162461bcd60e51b815260040161098390615639565b60008061164460fb60029054906101000a90046001600160a01b031661010654613c3e565b909550935084925050811590506116585750805b6116745760405162461bcd60e51b8152600401610983906154a3565b61167c6116ab565b156116995760405162461bcd60e51b81526004016109839061573f565b505060ff1661010d55565b6101005481565b60975460ff1690565b3360006116d660fb60029054906101000a90046001600160a01b031683613d11565b91508190506116f75760405162461bcd60e51b815260040161098390615373565b60008061171c60fb60029054906101000a90046001600160a01b031661010654613c3e565b909550935084925050811590506117305750805b61174c5760405162461bcd60e51b8152600401610983906154a3565b6117546116ab565b156117715760405162461bcd60e51b81526004016109839061573f565b60016101005410156117955760405162461bcd60e51b815260040161098390615957565b336000908152610111602052604090205460ff166117c55760405162461bcd60e51b815260040161098390615a32565b600160fb54610100900460ff1660058111156117f157634e487b7160e01b600052602160045260246000fd5b14806118265750600260fb54610100900460ff16600581111561182457634e487b7160e01b600052602160045260246000fd5b145b6118425760405162461bcd60e51b815260040161098390615a86565b336000908152610114602052604090205460ff16156118735760405162461bcd60e51b815260040161098390615bb4565b33600090815261011460205260409020805460ff191660019081179091556101105461189e91614083565b6101108190555060006118b9610acd610abc61011054613e60565b905061191a676765c793fa10079d601b1b61191460fb60029054906101000a90046001600160a01b0316604051806040016040528060138152602001727265706f72745468726573686f6c644d61726b60681b815250614383565b90613ebe565b8151106119385760fb805461ff00191661050017905561193861414a565b610106547fbc505b9cf801a19091eaef3ee8c984834c29bd44a9b558942320dcc05755183c3360405161196b9190615233565b60405180910390a25050505050565b6101026020526000908152604090205460ff1681565b6000806119b560fb60029054906101000a90046001600160a01b031661010654613c3e565b909550935084925050811590506119c95750805b6119e55760405162461bcd60e51b8152600401610983906154a3565b336000611a0760fb60029054906101000a90046001600160a01b031683613d11565b9150819050611a285760405162461bcd60e51b815260040161098390615373565b611a306116ab565b15611a4d5760405162461bcd60e51b81526004016109839061573f565b336000908152610111602052604090205460ff16611a7d5760405162461bcd60e51b815260040161098390615a32565b600086815260fe6020908152604080832033845290915290205460ff1615611ab75760405162461bcd60e51b815260040161098390615910565b60ff8681548110611ad857634e487b7160e01b600052603260045260246000fd5b906000526020600020906007020160050154421115611b095760405162461bcd60e51b8152600401610983906153f2565b60ff8681548110611b2a57634e487b7160e01b600052603260045260246000fd5b600091825260209091206006600790920201015460ff1615611b5e5760405162461bcd60e51b815260040161098390615591565b600086815260fe6020908152604080832033808552908352818420805460ff199081166001179091558a855260fd84528285209185529252909120805460ff8816921682179055611c2a57611bef600160ff8881548110611bcf57634e487b7160e01b600052603260045260246000fd5b90600052602060002090600702016003015461408390919063ffffffff16565b60ff8781548110611c1057634e487b7160e01b600052603260045260246000fd5b906000526020600020906007020160030181905550611d34565b8460ff1660011415611cb757611c7c600160ff8881548110611c5c57634e487b7160e01b600052603260045260246000fd5b90600052602060002090600702016002015461408390919063ffffffff16565b60ff8781548110611c9d57634e487b7160e01b600052603260045260246000fd5b906000526020600020906007020160020181905550611d34565b611cfd600160ff8881548110611cdd57634e487b7160e01b600052603260045260246000fd5b90600052602060002090600702016004015461408390919063ffffffff16565b60ff8781548110611d1e57634e487b7160e01b600052603260045260246000fd5b9060005260206000209060070201600401819055505b7f485d439baac21ce98da258beb24b6b341bfebc279a26ffd63e1bb44481ea736086866101065433604051611d6c9493929190615dd3565b60405180910390a1505050505050565b60ff8181548110611d8c57600080fd5b600091825260209091206007909102018054600182015460028301546003840154600485015460058601546006909601546001600160a01b038616975060ff600160a01b9096048616969495939492939192911688565b61010a5481565b600054610100900460ff1680611e03575060005460ff16155b611e1f5760405162461bcd60e51b81526004016109839061580a565b600054610100900460ff16158015611e4a576000805460ff1961ff0019909116610100171660011790555b6001600160a01b038316611e5d57600080fd5b611e6860008461473d565b60fb805460fc80546001600160a01b038881166001600160a01b031992831617909255610103805488841692169190911790558716620100000262010000600160b01b03199091161761ff0019169055610106829055610104805460ff60b01b1916601960b21b1790819055611ef49060ff600160b01b90910416676765c793fa10079d601b1b613ebe565b61010555611f0061414a565b61010654610103546040517fd11f0c3a0405076182c0274e8033d86a34d74efb6b6c97ed3649d1bc408605ff91611f44916001600160a01b0390911690339061528a565b60405180910390a28015611f5e576000805461ff00191690555b5050505050565b60fb54611f81906201000090046001600160a01b031633613bb8565b611f9d5760405162461bcd60e51b815260040161098390615639565b6101048054911515600160a81b0260ff60a81b19909216919091179055565b60fb54611fd8906201000090046001600160a01b031633613bb8565b611ff45760405162461bcd60e51b815260040161098390615639565b600260c95414156120175760405162461bcd60e51b815260040161098390615c2b565b600260c9556120246116ab565b156120415760405162461bcd60e51b81526004016109839061573f565b80600061206360fb60029054906101000a90046001600160a01b031683613d11565b91508190506120845760405162461bcd60e51b815260040161098390615373565b600160fb54610100900460ff1660058111156120b057634e487b7160e01b600052602160045260246000fd5b14806120e55750600260fb54610100900460ff1660058111156120e357634e487b7160e01b600052602160045260246000fd5b145b6120ee57600080fd5b6001600160a01b0384166000908152610111602052604090205460ff1661211457600080fd5b6001600160a01b03808516600081815261011260209081526040808320805489871680865283862091909155948452839055610111909152808220805460ff1990811690915592825290208054909116600117905560fc5461217891168585614747565b610106547fe2f0f8d4295d51aa19aa110c8f544a41cda6d96cbe3ea11ca981b5709e25127e8585336040516121af939291906152a4565b60405180910390a25050600160c9555050565b6101075481565b60008281526065602090815260408083206001600160a01b038516845290915290205460ff165b92915050565b6101095481565b60008061222260fb60029054906101000a90046001600160a01b031661010654613c3e565b909550935084925050811590506122365750805b6122525760405162461bcd60e51b8152600401610983906154a3565b33600061227460fb60029054906101000a90046001600160a01b031683613d11565b91508190506122955760405162461bcd60e51b815260040161098390615373565b61229d6116ab565b156122ba5760405162461bcd60e51b81526004016109839061573f565b600260c95414156122dd5760405162461bcd60e51b815260040161098390615c2b565b600260c95561010c544211156123055760405162461bcd60e51b815260040161098390615b1e565b610103546001600160a01b03163314156123315760405162461bcd60e51b81526004016109839061565f565b610104546001600160a01b0388811691161461235f5760405162461bcd60e51b8152600401610983906158e9565b610109543410156123825760405162461bcd60e51b815260040161098390615612565b60fb5460408051808201909152601a8152791b585e1a5b5d5b50dbdb9d1c9a589d5d1a5bdb905b1b1bddd95960321b60208201526123cf916201000090046001600160a01b031690614383565b3411156123ee5760405162461bcd60e51b8152600401610983906157bb565b61010454600160a01b900460ff1661243f5761010b543411158015612423575061010b54610107546124209034614083565b11155b61243f5760405162461bcd60e51b8152600401610983906156c9565b841561245d5760fc5461245d906001600160a01b0316873433614775565b336000908152610111602052604090205460ff166124a45761010a54612484906001614083565b61010a5533600090815261011160205260409020805460ff191660011790555b610107546124b29034614083565b61010755610108546124c49034614083565b6101085533600090815261011260205260409020546124e39034614083565b336000908152610112602052604090205561010b5461010754106125515760fb805461ff00191661020017905561010654610107546040517f1cd91f03f39e519f84f4a160cbb229baa213114ce1e2c9091113be04dcab79f691612548913390615d03565b60405180910390a25b6101045461256a906001600160a01b03163330346147dd565b85610106547faf19f2800036e0af502d9a499f8b79dd3905015dab9e74afa90d53eedcfc3cb03488336040516125a293929190615d39565b60405180910390a35050600160c9555050505050565b60fb5460ff1681565b6125cc6000336121c9565b6125d557600080fd5b6125dd6116ab565b156125fa5760405162461bcd60e51b81526004016109839061573f565b80600061261c60fb60029054906101000a90046001600160a01b031683613d11565b915081905061263d5760405162461bcd60e51b815260040161098390615373565b61010380546001600160a01b0319166001600160a01b03851617905561266460008461473d565b61266f6000336110fa565b610106547f90108bbb35709c4a9cf1515b114681aff2c4a9982d6232e38d7faf8f12fd1a1d84336040516126a492919061528a565b60405180910390a2505050565b600081565b6101136020526000908152604090205460ff1681565b60fb546126e8906201000090046001600160a01b031633613bb8565b806126f957506126f96000336121c9565b6127155760405162461bcd60e51b815260040161098390615abd565b60008061273a60fb60029054906101000a90046001600160a01b031661010654613c3e565b9095509350849250508115905061274e5750805b61276a5760405162461bcd60e51b8152600401610983906154a3565b33600061278c60fb60029054906101000a90046001600160a01b031683613d11565b91508190506127ad5760405162461bcd60e51b815260040161098390615373565b6127b56116ab565b156127d25760405162461bcd60e51b81526004016109839061573f565b60ff85815481106127f357634e487b7160e01b600052603260045260246000fd5b600091825260209091206006600790920201015460ff16156128275760405162461bcd60e51b815260040161098390615591565b600160ff868154811061284a57634e487b7160e01b600052603260045260246000fd5b906000526020600020906007020160020154106128795760405162461bcd60e51b8152600401610983906157e3565b600160ff868154811061289c57634e487b7160e01b600052603260045260246000fd5b906000526020600020906007020160060160006101000a81548160ff021916908315150217905550847f2debc6a56b7e63111710080c29370aee30c5754662064f800796a9db48e10f8c610106543360405161196b929190615d03565b60fb54612915906201000090046001600160a01b031633613bb8565b8061292657506129266000336121c9565b6129425760405162461bcd60e51b815260040161098390615abd565b600061296660fb60029054906101000a90046001600160a01b031661010654613c3e565b5060fb5490945061298b93506201000090046001600160a01b03169150339050613bb8565b6129ad5780156129ad5760405162461bcd60e51b8152600401610983906154f4565b3360006129cf60fb60029054906101000a90046001600160a01b031683613d11565b91508190506129f05760405162461bcd60e51b815260040161098390615373565b60fb5460408051808201909152601a8152791b5a5b9a5b5d5b50dbdb9d1c9a589d5d1a5bdb905b1b1bddd95960321b6020820152612a3d916201000090046001600160a01b031690614383565b8810158015612a98575060fb5460408051808201909152601a8152791b585e1a5b5d5b50dbdb9d1c9a589d5d1a5bdb905b1b1bddd95960321b6020820152612a94916201000090046001600160a01b031690614383565b8811155b612ab45760405162461bcd60e51b815260040161098390615a58565b60fb5460405163104b379160e11b8152620100009091046001600160a01b0316906320966f2290612ae9908890600401615233565b60206040518083038186803b158015612b0157600080fd5b505afa158015612b15573d6000803e3d6000fd5b505050506040513d601f19601f82011682018060405250810190612b39919061500a565b612b555760405162461bcd60e51b8152600401610983906158e9565b60fb546040805180820190915260158152741b5a5b9a5b5d5b50d85b5c185a59db95185c99d95d605a1b6020820152612b9d916201000090046001600160a01b031690614383565b8910158015612bf3575060fb546040805180820190915260158152741b585e1a5b5d5b50d85b5c185a59db95185c99d95d605a1b6020820152612bef916201000090046001600160a01b031690614383565b8911155b612c0f5760405162461bcd60e51b815260040161098390615a0a565b61010b899055610109889055612c254288614083565b61010c5561010480546001600160a01b0319166001600160a01b0387161760ff60a01b1916600160a01b86151502179055856001811115612c7657634e487b7160e01b600052602160045260246000fd5b60fb805460ff191660018381811115612c9f57634e487b7160e01b600052602160045260246000fd5b0217905550610106547fe6518ddd731e9ff1abe8f4ddc2e855d79089cf24a0aeafa2736f844120a4a43c8989898933604051612cdf959493929190615da4565b60405180910390a2505050505050505050565b600080612d1760fb60029054906101000a90046001600160a01b031661010654613c3e565b90955093508492505081159050612d2b5750805b612d475760405162461bcd60e51b8152600401610983906154a3565b336000612d6960fb60029054906101000a90046001600160a01b031683613d11565b9150819050612d8a5760405162461bcd60e51b815260040161098390615373565b612d926116ab565b15612daf5760405162461bcd60e51b81526004016109839061573f565b336000908152610111602052604090205460ff16612ddf5760405162461bcd60e51b815260040161098390615a32565b60ff8581548110612e0057634e487b7160e01b600052603260045260246000fd5b906000526020600020906007020160050154421115612e315760405162461bcd60e51b8152600401610983906153f2565b600085815260fe6020908152604080832033845290915290205460ff16612e6a5760405162461bcd60e51b815260040161098390615769565b600085815260fe6020908152604080832033808552908352818420805460ff1916905588845260fd835281842090845290915290205460ff16612f2857612eed600160ff8781548110612ecd57634e487b7160e01b600052603260045260246000fd5b90600052602060002090600702016003015461407790919063ffffffff16565b60ff8681548110612f0e57634e487b7160e01b600052603260045260246000fd5b90600052602060002090600702016003018190555061304b565b600085815260fd6020908152604080832033845290915290205460ff1660011415612fce57612f93600160ff8781548110612f7357634e487b7160e01b600052603260045260246000fd5b90600052602060002090600702016002015461407790919063ffffffff16565b60ff8681548110612fb457634e487b7160e01b600052603260045260246000fd5b90600052602060002090600702016002018190555061304b565b613014600160ff8781548110612ff457634e487b7160e01b600052603260045260246000fd5b90600052602060002090600702016004015461407790919063ffffffff16565b60ff868154811061303557634e487b7160e01b600052603260045260246000fd5b9060005260206000209060070201600401819055505b600085815260fd6020908152604080832033808552925291829020546101065492517fd42e1d421ffad0eeb6f5c13874f3b7265a6c1ee837604274a60d791b03c0d99d9361309e938a9360ff1692615dd3565b60405180910390a15050505050565b61010f5481565b3360006130d660fb60029054906101000a90046001600160a01b031683613d11565b91508190506130f75760405162461bcd60e51b815260040161098390615373565b60008061311c60fb60029054906101000a90046001600160a01b031661010654613c3e565b909550935084925050811590506131305750805b61314c5760405162461bcd60e51b8152600401610983906154a3565b6131546116ab565b6131705760405162461bcd60e51b81526004016109839061541b565b600360fb54610100900460ff16600581111561319c57634e487b7160e01b600052602160045260246000fd5b146131b95760405162461bcd60e51b815260040161098390615858565b336000908152610102602052604090205460ff16156131ea5760405162461bcd60e51b815260040161098390615b48565b336000908152610111602052604090205460ff1661321a5760405162461bcd60e51b815260040161098390615a32565b33600090815261010260205260409020805460ff191660019081179091556101015461324591614083565b61010155610106546040517f171c32d5ad1b28aaab993e4a35bc375827a5c199cb97fb4605a4a31aa30e4254916110ec913390615d03565b61010b5481565b61328d82610e69565b61329981610e9a61420f565b610ea983836142fe565b6101126020526000908152604090205481565b6001600160a01b0381166000908152610113602052604081205460ff16156132f05760405162461bcd60e51b815260040161098390615449565b600061331a610acd613311610108546101075461407790919063ffffffff16565b6101075461405d565b9050600061335a6101126000866001600160a01b03166001600160a01b03168152602001908152602001600020546133558461010554614804565b614819565b949350505050565b61010454600160a81b900460ff1681565b610103546001600160a01b031681565b3360006133a560fb60029054906101000a90046001600160a01b031683613d11565b91508190506133c65760405162461bcd60e51b815260040161098390615373565b60fb546133e2906201000090046001600160a01b031633613bb8565b806133f357506133f36000336121c9565b61340f5760405162461bcd60e51b815260040161098390615abd565b60008061343460fb60029054906101000a90046001600160a01b031661010654613c3e565b909550935084925050811590506134485750805b6134645760405162461bcd60e51b8152600401610983906154a3565b61346c6116ab565b6134885760405162461bcd60e51b81526004016109839061541b565b600061349c610acd610abc61010154613e60565b9050600360fb54610100900460ff1660058111156134ca57634e487b7160e01b600052602160045260246000fd5b146134e75760405162461bcd60e51b815260040161098390615858565b613540676765c793fa10079d601b1b61191460fb60029054906101000a90046001600160a01b0316604051806040016040528060138152602001727265766965775468726573686f6c644d61726b60681b815250614383565b815110156135605760405162461bcd60e51b815260040161098390615c62565b60fb805461ff00191661040017905561010654604051600080516020615f458339815191529161309e916004903390615d58565b3360006135b660fb60029054906101000a90046001600160a01b031683613d11565b91508190506135d75760405162461bcd60e51b815260040161098390615373565b600260c95414156135fa5760405162461bcd60e51b815260040161098390615c2b565b600260c95561010454600160a81b900460ff161561361757600080fd5b6136213384614402565b5050600160c95550565b6101015481565b60fb5461364e906201000090046001600160a01b031633613bb8565b8061365f575061365f6000336121c9565b61367b5760405162461bcd60e51b815260040161098390615abd565b6000806136a060fb60029054906101000a90046001600160a01b031661010654613c3e565b909550935084925050811590506136b45750805b6136d05760405162461bcd60e51b8152600401610983906154a3565b3360006136f260fb60029054906101000a90046001600160a01b031683613d11565b91508190506137135760405162461bcd60e51b815260040161098390615373565b61371b6116ab565b156137385760405162461bcd60e51b81526004016109839061573f565b6001600160a01b03871661374b57600080fd5b61010b5461010754101561377c5761010c5442101561377c5760405162461bcd60e51b81526004016109839061578d565b600060fb5460ff1660018111156137a357634e487b7160e01b600052602160045260246000fd5b14156138045761010b5461010754101580156137e85750600260fb54610100900460ff1660058111156137e657634e487b7160e01b600052602160045260246000fd5b145b6138045760405162461bcd60e51b8152600401610983906154cc565b60fb5460408051808201909152601b81527a1b5a5b9a5b5d5b54995c5d595cdd105b5bdd5b9d105b1b1bddd959602a1b6020820152613852916201000090046001600160a01b031690614383565b86101580156138ae575060fb5460408051808201909152601b81527a1b585e1a5b5d5b54995c5d595cdd105b5bdd5b9d105b1b1bddd959602a1b60208201526138aa916201000090046001600160a01b031690614383565b8611155b6138ca5760405162461bcd60e51b81526004016109839061592f565b610108548611156138ed5760405162461bcd60e51b815260040161098390615bd6565b60fb5460408051808201909152601281527136b4b72932b8bab2b9ba223ab930ba34b7b760711b6020820152613932916201000090046001600160a01b031690614383565b8510158015613985575060fb5460408051808201909152601281527136b0bc2932b8bab2b9ba223ab930ba34b7b760711b6020820152613981916201000090046001600160a01b031690614383565b8511155b6139a15760405162461bcd60e51b815260040161098390615c8a565b60016101005410613a075760ff61010f54815481106139d057634e487b7160e01b600052603260045260246000fd5b6000918252602090912060079091020154600160a01b900460ff16613a075760405162461bcd60e51b81526004016109839061587f565b60ff604051806101000160405280896001600160a01b03168152602001600015158152602001888152602001600081526020016000815260200160008152602001613a5b884261408390919063ffffffff16565b8152600060209182018190528354600180820186559482529082902083516007909202018054928401516001600160a01b03199093166001600160a01b039092169190911760ff60a01b1916600160a01b92151592909202919091178155604082015181840155606082015160028201556080820151600382015560a0820151600482015560c0820151600582015560e0909101516006909101805460ff191691151591909117905561010054613b1191614083565b6101005560ff54613b23906001614077565b61010f5560ff54613b35906001614077565b7f1c12d3e34be5ec3efe1e2b3287dbf017fe8c1502a159bf725d0c375d1ffd7b4a6101065487898b33604051613b6f959493929190615da4565b60405180910390a250505050505050565b60fb54610100900460ff1681565b61010454600160a01b900460ff1681565b6001600160e01b031981166301ffc9a760e01b14919050565b60405163f7878c6960e01b81526000906001600160a01b0384169063f7878c6990613be7908590600401615233565b60206040518083038186803b158015613bff57600080fd5b505afa158015613c13573d6000803e3d6000fd5b505050506040513d601f19601f82011682018060405250810190613c37919061500a565b9392505050565b6000806000806000806000806000808b6001600160a01b031663339d50a58c6040518263ffffffff1660e01b8152600401613c79919061530f565b6101206040518083038186803b158015613c9257600080fd5b505afa158015613ca6573d6000803e3d6000fd5b505050506040513d601f19601f82011682018060405250810190613cca9190614eb0565b909192939495509091929394509091929350909150809850819950829550839650849750505050505082828287879950995099509950995050505050509295509295909350565b6000806001600160a01b038316613d2757600080fd5b600080856001600160a01b031663365b98b2876001600160a01b031663eda7794e886040518263ffffffff1660e01b8152600401613d659190615233565b60206040518083038186803b158015613d7d57600080fd5b505afa158015613d91573d6000803e3d6000fd5b505050506040513d601f19601f82011682018060405250810190613db591906150da565b6040518263ffffffff1660e01b8152600401613dd1919061530f565b60a06040518083038186803b158015613de957600080fd5b505afa158015613dfd573d6000803e3d6000fd5b505050506040513d601f19601f82011682018060405250810190613e219190614f8d565b5092945091925050506001600160a01b0380831690861614613e555760405162461bcd60e51b8152600401610983906155e5565b909590945092505050565b613e68614de8565b50604080516020810190915290815290565b613e82614de8565b6040518060200160405280613e9b856000015185614881565b90529392505050565b613eac614de8565b613c3783613eb984613e60565b6148a5565b6000613c378284615e34565b6000806000846001600160a01b031663339d50a5856040518263ffffffff1660e01b8152600401613efb919061530f565b6101206040518083038186803b158015613f1457600080fd5b505afa158015613f28573d6000803e3d6000fd5b505050506040513d601f19601f82011682018060405250810190613f4c9190614eb0565b5050604051634c788de760e11b8152929850506001600160a01b038b1695506398f11bce9450613f8393508792505060040161530f565b60206040518083038186803b158015613f9b57600080fd5b505afa158015613faf573d6000803e3d6000fd5b505050506040513d601f19601f82011682018060405250810190613fd391906150da565b90508061335a576040516314f7ea9960e01b81526001600160a01b038616906314f7ea9990614004906004016156f1565b60206040518083038186803b15801561401c57600080fd5b505afa158015614030573d6000803e3d6000fd5b505050506040513d601f19601f8201168201806040525081019061405491906150da565b95945050505050565b614065614de8565b613c3761407184613e60565b83614804565b6000613c378284615e53565b6000613c378284615e08565b60405163e128c96960e01b81526001600160a01b0384169063e128c969906140bd90859085906004016152eb565b600060405180830381600087803b1580156140d757600080fd5b505af11580156140eb573d6000803e3d6000fd5b50505050505050565b610ea98363a9059cbb60e01b84846040516024016141139291906152eb565b60408051601f198184030181529190526020810180516001600160e01b03166001600160e01b0319909316929092179091526148c6565b6141526116ab565b1561416f5760405162461bcd60e51b81526004016109839061573f565b6097805460ff191660011790557f62e78cea01bee320cd4e420270b5ea74000d11b0c9f74754ebdbfc544b05a2586141a561420f565b6040516141b29190615233565b60405180910390a1565b6141c46116ab565b6141e05760405162461bcd60e51b81526004016109839061541b565b6097805460ff191690557f5db9ee0a495bf2e6ff9c91a7834c1ba4fdd244a5e8aa4e537bd38aeae4b073aa6141a55b3390565b61421d82826121c9565b61113c57614235816001600160a01b03166014614955565b614240836020614955565b6040516020016142519291906151c4565b60408051601f198184030181529082905262461bcd60e51b825261098391600401615340565b61428182826121c9565b61113c5760008281526065602090815260408083206001600160a01b03851684529091529020805460ff191660011790556142ba61420f565b6001600160a01b0316816001600160a01b0316837f2f8788117e7eff1d82e926ec794901d17c78024a50270940304540a733656f0d60405160405180910390a45050565b61430882826121c9565b1561113c5760008281526065602090815260408083206001600160a01b03851684529091529020805460ff1916905561433f61420f565b6001600160a01b0316816001600160a01b0316837ff6391f5c32d9c69d2a47ea670b442974b53935d1edc7fd64eb21e047a839171b60405160405180910390a45050565b6040516314f7ea9960e01b81526000906001600160a01b038416906314f7ea99906143b2908590600401615340565b60206040518083038186803b1580156143ca57600080fd5b505afa1580156143de573d6000803e3d6000fd5b505050506040513d601f19601f82011682018060405250810190613c3791906150da565b6001600160a01b03811661441557600080fd5b6001600160a01b0382166000908152610113602052604090205460ff161561444f5760405162461bcd60e51b815260040161098390615449565b6001600160a01b0382166000908152610111602052604090205460ff166144885760405162461bcd60e51b815260040161098390615a32565b600560fb54610100900460ff1660058111156144b457634e487b7160e01b600052602160045260246000fd5b141580156144ec5750600360fb54610100900460ff1660058111156144e957634e487b7160e01b600052602160045260246000fd5b14155b80156144fb5750600161010154105b1561456c57600160fb54610100900460ff16600581111561452c57634e487b7160e01b600052602160045260246000fd5b146145495760405162461bcd60e51b815260040161098390615516565b600161010e541061456c5760405162461bcd60e51b8152600401610983906159d4565b600061459a61457a846132b6565b6001600160a01b0385166000908152610112602052604090205490614077565b9050600560fb54610100900460ff1660058111156145c857634e487b7160e01b600052602160045260246000fd5b141580156146005750600360fb54610100900460ff1660058111156145fd57634e487b7160e01b600052602160045260246000fd5b14155b156146925760fc5461461b906001600160a01b031684614b06565b610108546146299082614077565b610108556101075461463b9082614077565b610107556001600160a01b038316600090815261011160205260409020805460ff1916905561010a5461466f906001614077565b61010a556001600160a01b038316600090815261011260205260408120556146d1565b6001600160a01b038316600090815261011260205260409020546146b69082614077565b6001600160a01b038416600090815261011260205260409020555b6001600160a01b03808416600090815261011360205260409020805460ff1916600117905561010454614706911683836140f4565b610106547f2ae6cdc84ee6b5d4292ebd525e1b9917844bcf6534ccfd5760e40fc34c1a894c8285336040516126a493929190615d1a565b61113c8282614277565b6040516374dc32b960e11b81526001600160a01b0384169063e9b86572906140bd908590859060040161528a565b604051630e9709bf60e41b81526001600160a01b0385169063e9709bf0906147a590869086908690600401615d85565b600060405180830381600087803b1580156147bf57600080fd5b505af11580156147d3573d6000803e3d6000fd5b5050505050505050565b6147fe846323b872dd60e01b858585604051602401614113939291906152c7565b50505050565b61480c614de8565b613c3783610ac884613e60565b8051600090819061482b908590614b68565b905061484281676765c793fa10079d601b1b614bad565b1561486c57614867600161486183676765c793fa10079d601b1b614bea565b90614c29565b61335a565b61335a81676765c793fa10079d601b1b614bea565b8051600090613c379061489f85676765c793fa10079d601b1b614b68565b90614bea565b6148ad614de8565b6040518060200160405280613e9b856000015185614c58565b600061491b826040518060400160405280602081526020017f5361666545524332303a206c6f772d6c6576656c2063616c6c206661696c6564815250856001600160a01b0316614c809092919063ffffffff16565b805190915015610ea95780806020019051810190614939919061500a565b610ea95760405162461bcd60e51b815260040161098390615b6a565b60606000614964836002615e34565b61496f906002615e08565b6001600160401b0381111561499457634e487b7160e01b600052604160045260246000fd5b6040519080825280601f01601f1916602001820160405280156149be576020820181803683370190505b509050600360fc1b816000815181106149e757634e487b7160e01b600052603260045260246000fd5b60200101906001600160f81b031916908160001a905350600f60fb1b81600181518110614a2457634e487b7160e01b600052603260045260246000fd5b60200101906001600160f81b031916908160001a9053506000614a48846002615e34565b614a53906001615e08565b90505b6001811115614ae7576f181899199a1a9b1b9c1cb0b131b232b360811b85600f1660108110614a9557634e487b7160e01b600052603260045260246000fd5b1a60f81b828281518110614ab957634e487b7160e01b600052603260045260246000fd5b60200101906001600160f81b031916908160001a90535060049490941c93614ae081615e96565b9050614a56565b508315613c375760405162461bcd60e51b815260040161098390615397565b604051630eaf305760e21b81526001600160a01b03831690633abcc15c90614b32908490600401615233565b600060405180830381600087803b158015614b4c57600080fd5b505af1158015614b60573d6000803e3d6000fd5b505050505050565b600082614b77575060006121f0565b6000614b838385615e34565b905082614b908583615e20565b14613c375760405162461bcd60e51b8152600401610983906158a8565b6000613c37838360405180604001604052806018815260200177536166654d6174683a206d6f64756c6f206279207a65726f60401b815250614c8f565b6000613c3783836040518060400160405280601a815260200179536166654d6174683a206469766973696f6e206279207a65726f60301b815250614cbb565b600080614c368385615e08565b905083811015613c375760405162461bcd60e51b81526004016109839061555c565b6000613c37676765c793fa10079d601b1b61489f846000015186614b6890919063ffffffff16565b606061335a8484600085614ce9565b60008183614cb05760405162461bcd60e51b81526004016109839190615340565b5061335a8385615ec8565b60008183614cdc5760405162461bcd60e51b81526004016109839190615340565b5060006140548486615e20565b606082471015614d0b5760405162461bcd60e51b815260040161098390615683565b614d1485614da9565b614d305760405162461bcd60e51b815260040161098390615ae7565b600080866001600160a01b03168587604051614d4c91906151a8565b60006040518083038185875af1925050503d8060008114614d89576040519150601f19603f3d011682016040523d82523d6000602084013e614d8e565b606091505b5091509150614d9e828286614daf565b979650505050505050565b3b151590565b60608315614dbe575081613c37565b825115614dce5782518084602001fd5b8160405162461bcd60e51b81526004016109839190615340565b6040518060200160405280600081525090565b803560ff8116811461093557600080fd5b600060208284031215614e1d578081fd5b8135613c3781615f1e565b600060208284031215614e39578081fd5b8151613c3781615f1e565b600080600060608486031215614e58578182fd5b8335614e6381615f1e565b95602085013595506040909401359392505050565b60008060408385031215614e8a578182fd5b8235614e9581615f1e565b91506020830135614ea581615f1e565b809150509250929050565b60008060008060008060008060006101208a8c031215614ece578485fd5b8951614ed981615f1e565b60208b0151909950614eea81615f1e565b8098505060408a0151965060608a0151955060808a0151945060a08a0151935060c08a0151614f1881615f36565b60e08b0151909350614f2981615f36565b6101008b0151909250614f3b81615f36565b809150509295985092959850929598565b600080600060608486031215614f60578283fd5b8335614f6b81615f1e565b9250602084013591506040840135614f8281615f36565b809150509250925092565b600080600080600060a08688031215614fa4578081fd5b8551614faf81615f1e565b8095505060208601519350604086015192506060860151614fcf81615f36565b6080870151909250614fe081615f36565b809150509295509295909350565b600060208284031215614fff578081fd5b8135613c3781615f36565b60006020828403121561501b578081fd5b8151613c3781615f36565b600060208284031215615037578081fd5b5035919050565b60008060408385031215615050578182fd5b823591506020830135614ea581615f1e565b600060208284031215615073578081fd5b81356001600160e01b031981168114613c37578182fd5b6000806000806080858703121561509f578182fd5b84356150aa81615f1e565b935060208501356150ba81615f1e565b925060408501356150ca81615f1e565b9396929550929360600135925050565b6000602082840312156150eb578081fd5b5051919050565b60008060008060008060c0878903121561510a578384fd5b86359550602087013594506040870135935060608701359250608087013561513181615f1e565b915060a087013561514181615f36565b809150509295509295509295565b60008060408385031215615161578182fd5b8235915061517160208401614dfb565b90509250929050565b60006020828403121561518b578081fd5b613c3782614dfb565b600681106151a4576151a4615f08565b9052565b600082516151ba818460208701615e6a565b9190910192915050565b600076020b1b1b2b9b9a1b7b73a3937b61d1030b1b1b7bab73a1604d1b825283516151f6816017850160208801615e6a565b7001034b99036b4b9b9b4b733903937b6329607d1b6017918401918201528351615227816028840160208801615e6a565b01602801949350505050565b6001600160a01b0391909116815260200190565b6001600160a01b03989098168852951515602088015260408701949094526060860192909252608085015260a084015260c0830152151560e08201526101000190565b6001600160a01b0392831681529116602082015260400190565b6001600160a01b0393841681529183166020830152909116604082015260600190565b6001600160a01b039384168152919092166020820152604081019190915260600190565b6001600160a01b03929092168252602082015260400190565b901515815260200190565b90815260200190565b602081016121f08284615194565b602081016002831061533a5761533a615f08565b91905290565b600060208252825180602084015261535f816040850160208701615e6a565b601f01601f19169190910160400192915050565b6020808252600a90820152691d5b9d995c9a599a595960b21b604082015260600190565b6020808252818101527f537472696e67733a20686578206c656e67746820696e73756666696369656e74604082015260600190565b6020808252600c908201526b1d1a5b59481919599a58da5d60a21b604082015260600190565b6020808252600f908201526e1c995c5d595cdd08195e1c1a5c9959608a1b604082015260600190565b60208082526014908201527314185d5cd8589b194e881b9bdd081c185d5cd95960621b604082015260600190565b6020808252601190820152703130b630b731b2903bb4ba34323930bbb760791b604082015260600190565b6020808252601590820152746e6f2066696e616c697a656420726571756573747360581b604082015260600190565b6020808252600f908201526e63616d706169676e2061637469766560881b604082015260600190565b6020808252600e908201526d1d185c99d95d081b9bdd081b595d60921b604082015260600190565b602080825260089082015267185c1c1c9bdd995960c21b604082015260600190565b60208082526026908201527f63616d706169676e206e6f206c6f6e67657220696e20636f6c6c656374696f6e60408201526520737461676560d01b606082015260800190565b6020808252601b908201527a536166654d6174683a206164646974696f6e206f766572666c6f7760281b604082015260600190565b6020808252600690820152651d9bda59195960d21b604082015260600190565b6020808252601a908201527965786861757374656420646561646c696e6520737472696b657360301b604082015260600190565b6020808252601390820152721d5cd95c88191bd95cc81b9bdd08195e1a5cdd606a1b604082015260600190565b6020808252600d908201526c76616c756520746f6f206c6f7760981b604082015260600190565b6020808252600c908201526b6f6e6c7920666163746f727960a01b604082015260600190565b6020808252600a90820152693937b7ba1037bbb732b960b11b604082015260600190565b60208082526026908201527f416464726573733a20696e73756666696369656e742062616c616e636520666f6040820152651c8818d85b1b60d21b606082015260800190565b6020808252600e908201526d195e18d959591cc81d185c99d95d60921b604082015260600190565b6020808252601190820152703232b330bab63a21b7b6b6b4b9b9b4b7b760791b604082015260600190565b602080825260099082015268199a5b985b1a5e995960ba1b604082015260600190565b60208082526010908201526f14185d5cd8589b194e881c185d5cd95960821b604082015260600190565b6020808252600a90820152691d9bdd1948199a5c9cdd60b21b604082015260600190565b602080825260149082015273191958591b1a5b99481b9bdd08195e1c1a5c995960621b604082015260600190565b6020808252600e908201526d0ecc2d8eaca40e8dede40d0d2ced60931b604082015260600190565b6020808252600d908201526c68617320617070726f76616c7360981b604082015260600190565b6020808252602e908201527f496e697469616c697a61626c653a20636f6e747261637420697320616c72656160408201526d191e481a5b9a5d1a585b1a5e995960921b606082015260800190565b6020808252600d908201526c6e6f7420696e2072657669657760981b604082015260600190565b6020808252600f908201526e72657175657374206f6e676f696e6760881b604082015260600190565b60208082526021908201527f536166654d6174683a206d756c7469706c69636174696f6e206f766572666c6f6040820152607760f81b606082015260800190565b6020808252600d908201526c34b73b30b634b2103a37b5b2b760991b604082015260600190565b6020808252600590820152641d9bdd195960da1b604082015260600190565b6020808252600e908201526d185b5bdd5b9d081919599a58da5d60921b604082015260600190565b6020808252600b908201526a6e6f20726571756573747360a81b604082015260600190565b60208082526014908201527363616d706169676e206e6f74206f6e676f696e6760601b604082015260600190565b60208082526010908201526f185c1c1c9bdd985b081919599a58da5d60821b604082015260600190565b6020808252601c908201527b1c995c5d595cdd1cc81a185d99481899595b88199a5b985b1a5e995960221b604082015260600190565b6020808252600e908201526d1d185c99d95d081919599a58da5d60921b604082015260600190565b6020808252600c908201526b3737b71030b8383937bb32b960a11b604082015260600190565b60208082526014908201527318dbdb9d1c9a589d5d1a5bdb881919599a58da5d60621b604082015260600190565b6020808252601f908201527f6e6f7420696e20636f6c6c656374696f6e206f72206c69766520737461746500604082015260600190565b60208082526010908201526f61646d696e206f7220666163746f727960801b604082015260600190565b6020808252601d908201527f416464726573733a2063616c6c20746f206e6f6e2d636f6e7472616374000000604082015260600190565b60208082526010908201526f191958591b1a5b9948195e1c1a5c995960821b604082015260600190565b6020808252600890820152671c995d9a595dd95960c21b604082015260600190565b6020808252602a908201527f5361666545524332303a204552433230206f7065726174696f6e20646964206e6040820152691bdd081cdd58d8d9595960b21b606082015260800190565b6020808252600890820152671c995c1bdc9d195960c21b604082015260600190565b60208082526035908201527f7265717565737420616d6f756e742063616e6e6f7420626520686967686572206040820152747468616e2063616d706169676e2062616c616e636560581b606082015260800190565b6020808252601f908201527f5265656e7472616e637947756172643a207265656e7472616e742063616c6c00604082015260600190565b6020808252600e908201526d1c995d9a595dc81919599a58da5d60921b604082015260600190565b60208082526010908201526f191d5c985d1a5bdb881919599a58da5d60821b604082015260600190565b6020808252602f908201527f416363657373436f6e74726f6c3a2063616e206f6e6c792072656e6f756e636560408201526e103937b632b9903337b91039b2b63360891b606082015260800190565b9182526001600160a01b0316602082015260400190565b9283526001600160a01b03918216602084015216604082015260600190565b92835290151560208301526001600160a01b0316604082015260600190565b83815260608101615d6c6020830185615194565b6001600160a01b03929092166040919091015292915050565b92835260208301919091526001600160a01b0316604082015260600190565b948552602085019390935260408401919091526001600160a01b03908116606084015216608082015260a00190565b93845260ff92909216602084015260408301526001600160a01b0316606082015260800190565b60ff91909116815260200190565b60008219821115615e1b57615e1b615edc565b500190565b600082615e2f57615e2f615ef2565b500490565b6000816000190483118215151615615e4e57615e4e615edc565b500290565b600082821015615e6557615e65615edc565b500390565b60005b83811015615e85578181015183820152602001615e6d565b838111156147fe5750506000910152565b600081615ea557615ea5615edc565b506000190190565b6000600019821415615ec157615ec1615edc565b5060010190565b600082615ed757615ed7615ef2565b500690565b634e487b7160e01b600052601160045260246000fd5b634e487b7160e01b600052601260045260246000fd5b634e487b7160e01b600052602160045260246000fd5b6001600160a01b0381168114615f3357600080fd5b50565b8015158114615f3357600080fdfec40ad16fc5b20ffc153a2d070fb380a2012c4f74fa9e348a91b0fc93bd4ef9c3a264697066735822122017e2fc76af5d117c374d5fef3754beb5277a891ceefd5ea614fa4474a074b13164736f6c63430008000033",
  "immutableReferences": {},
  "source": "// contracts/Campaign.sol\n// SPDX-License-Identifier: UNLICENSED\npragma solidity >=0.4.22 <0.9.0;\n\nimport \"@openzeppelin/contracts-upgradeable/utils/math/SafeMathUpgradeable.sol\";\nimport \"@openzeppelin/contracts-upgradeable/proxy/utils/Initializable.sol\";\nimport \"@openzeppelin/contracts-upgradeable/security/PausableUpgradeable.sol\";\nimport \"@openzeppelin/contracts-upgradeable/security/ReentrancyGuardUpgradeable.sol\";\nimport \"@openzeppelin/contracts-upgradeable/token/ERC20/IERC20Upgradeable.sol\";\nimport \"@openzeppelin/contracts-upgradeable/token/ERC20/utils/SafeERC20Upgradeable.sol\";\n\nimport \"./CampaignFactory.sol\";\nimport \"./utils/AccessControl.sol\";\n\nimport \"./interfaces/FactoryInterface.sol\";\nimport \"./interfaces/CampaignRewardInterface.sol\";\n\nimport \"./libraries/contracts/CampaignFactoryLib.sol\";\nimport \"./libraries/contracts/CampaignRewardLib.sol\";\n\nimport \"./libraries/math/DecimalMath.sol\";\n\ncontract Campaign is\n    Initializable,\n    AccessControl,\n    PausableUpgradeable,\n    ReentrancyGuardUpgradeable\n{\n    using SafeMathUpgradeable for uint8;\n    using SafeMathUpgradeable for uint256;\n    using DecimalMath for int256;\n    using DecimalMath for uint256;\n\n    enum GOALTYPE {\n        FIXED,\n        FLEXIBLE\n    }\n    GOALTYPE public goalType;\n\n    enum CAMPAIGN_STATE {\n        GENESIS,\n        COLLECTION,\n        LIVE,\n        REVIEW,\n        COMPLETE,\n        UNSUCCESSFUL\n    }\n    CAMPAIGN_STATE public campaignState;\n\n    /// @dev `Initializer Event`\n    event CampaignOwnerSet(\n        uint256 indexed campaignId,\n        address user,\n        address sender\n    );\n\n    /// @dev `Campaign Config Events`\n    event CampaignOwnershipTransferred(\n        uint256 indexed campaignId,\n        address newUser,\n        address sender\n    );\n    event CampaignSettingsUpdated(\n        uint256 indexed campaignId,\n        uint256 minimumContribution,\n        uint256 deadline,\n        uint256 goalType,\n        address token,\n        address sender\n    );\n    event CampaignDeadlineExtended(\n        uint256 indexed campaignId,\n        uint256 time,\n        address sender\n    );\n    event CampaignReported(uint256 indexed campaignId, address sender);\n\n    /// @dev `Approval Transfer`\n    event CampaignUserDataTransferred(\n        uint256 indexed campaignId,\n        address oldAddress,\n        address newAddress,\n        address sender\n    );\n\n    /// @dev `Contribution Events`\n    event ContributionMade(\n        uint256 indexed campaignId,\n        uint256 amount,\n        uint256 indexed rewardId,\n        bool withReward,\n        address sender\n    );\n    event ContributionWithdrawn(\n        uint256 indexed campaignId,\n        uint256 amount,\n        address user,\n        address sender\n    );\n    event TargetMet(uint256 indexed campaignId, uint256 amount, address sender);\n\n    /// @dev `Request Events`\n    event RequestAdded(\n        uint256 indexed requestId,\n        uint256 campaignId,\n        uint256 duration,\n        uint256 value,\n        address recipient,\n        address sender\n    );\n    event RequestVoided(\n        uint256 indexed requestId,\n        uint256 campaignId,\n        address sender\n    );\n    event RequestComplete(\n        uint256 indexed requestId,\n        uint256 campaignId,\n        address sender\n    );\n\n    /// @dev `Vote Events`\n    event Voted(\n        uint256 requestId,\n        uint8 support,\n        uint256 campaignId,\n        address sender\n    );\n    event VoteCancelled(\n        uint256 requestId,\n        uint8 support,\n        uint256 campaignId,\n        address sender\n    );\n\n    /// @dev `Review Events`\n    event CampaignReviewed(uint256 campaignId, address sender);\n\n    /// @dev `Campaign State Events`\n    event CampaignStateChange(\n        uint256 campaignId,\n        CAMPAIGN_STATE state,\n        address sender\n    );\n\n    CampaignFactoryInterface private campaignFactoryContract;\n    CampaignRewardInterface private campaignRewardContract;\n\n    /// @dev `Request`\n    struct Request {\n        address payable recipient;\n        bool complete;\n        uint256 value;\n        uint256 approvalCount;\n        uint256 againstCount;\n        uint256 abstainedCount;\n        uint256 duration;\n        bool void;\n    }\n    mapping(uint256 => mapping(address => uint8)) public requestSupport;\n    mapping(uint256 => mapping(address => bool)) public hasVoted;\n    Request[] public requests;\n    uint256 public requestCount;\n\n    /// @dev `Review`\n    uint256 public reviewCount;\n    mapping(address => bool) public reviewed;\n\n    address public root;\n    address public acceptedToken;\n    bool public allowContributionAfterTargetIsMet;\n    bool public withdrawalsPaused;\n    uint8 private percentBase;\n    uint256 private percent;\n    uint256 public campaignID;\n    uint256 public totalCampaignContribution;\n    uint256 public campaignBalance;\n    uint256 public minimumContribution;\n    uint256 public approversCount;\n    uint256 public target;\n    uint256 public deadline;\n    uint256 public deadlineSetTimes;\n    uint256 public finalizedRequestCount;\n    uint256 public currentRunningRequest;\n    uint256 public reportCount;\n    mapping(address => bool) public approvers;\n    mapping(address => uint256) public userTotalContribution;\n    mapping(address => bool) public userContributionWithdrawn;\n    mapping(address => bool) public reported;\n\n    /// @dev Ensures caller is only factory\n    modifier onlyFactory() {\n        require(\n            CampaignFactoryLib.canManageCampaigns(\n                campaignFactoryContract,\n                msg.sender\n            ),\n            \"only factory\"\n        );\n        _;\n    }\n\n    /// @dev Ensures caller is factory or campaign owner\n    modifier adminOrFactory() {\n        require(\n            CampaignFactoryLib.canManageCampaigns(\n                campaignFactoryContract,\n                msg.sender\n            ) || hasRole(DEFAULT_ADMIN_ROLE, msg.sender),\n            \"admin or factory\"\n        );\n        _;\n    }\n\n    /// @dev Ensures the campaign is set to active by campaign owner and approved by factory\n    modifier campaignIsActive() {\n        bool campaignIsApproved;\n        bool campaignIsEnabled;\n        (, , , campaignIsApproved, campaignIsEnabled) = CampaignFactoryLib\n            .campaignInfo(campaignFactoryContract, campaignID);\n\n        require(campaignIsApproved && campaignIsEnabled, \"campaign active\");\n        _;\n    }\n\n    /// @dev Ensures campaign isn't approved by factory. Applies unless caller is a campaign manager from factory\n    modifier campaignIsNotApproved() {\n        bool campaignIsApproved;\n        (, , , campaignIsApproved, ) = CampaignFactoryLib.campaignInfo(\n            campaignFactoryContract,\n            campaignID\n        );\n\n        if (\n            !CampaignFactoryLib.canManageCampaigns(\n                campaignFactoryContract,\n                msg.sender\n            )\n        ) require(!campaignIsApproved, \"approved\");\n\n        _;\n    }\n\n    /// @dev Ensures a user is verified\n    modifier userIsVerified(address _user) {\n        bool verified;\n        (, verified) = CampaignFactoryLib.userInfo(\n            campaignFactoryContract,\n            _user\n        );\n        require(verified, \"unverified\");\n        _;\n    }\n\n    /**\n     * @dev        Constructor\n     * @param      _campaignFactory     Address of factory\n     * @param      _root                Address of campaign owner\n     */\n    function __Campaign_init(\n        CampaignFactory _campaignFactory,\n        CampaignRewards _camaignRewards, \n        address _root,\n        uint256 _campaignId\n    )\n        public\n        initializer\n    {\n        require(address(_root) != address(0));\n        _setupRole(DEFAULT_ADMIN_ROLE, _root);\n\n        campaignFactoryContract = CampaignFactoryInterface(\n            address(_campaignFactory)\n        );\n        campaignRewardContract = CampaignRewardInterface(address(_camaignRewards));\n        \n        root = _root;\n        campaignState = CAMPAIGN_STATE.GENESIS;\n        campaignID = _campaignId;\n        percentBase = 100;\n        percent = percentBase.mul(DecimalMath.UNIT);\n\n        _pause();\n\n        emit CampaignOwnerSet(campaignID, root, msg.sender);\n    }\n\n    /**\n     * @dev        Transfers campaign ownership from one user to another.\n     * @param      _newRoot    Address of the user campaign ownership is being transfered to\n     */\n    function transferCampaignOwnership(address _newRoot)\n        external\n        onlyAdmin\n        whenNotPaused\n        userIsVerified(_newRoot)\n    {\n        root = _newRoot;\n        _setupRole(DEFAULT_ADMIN_ROLE, _newRoot);\n        renounceRole(DEFAULT_ADMIN_ROLE, msg.sender);\n\n        emit CampaignOwnershipTransferred(campaignID, _newRoot, msg.sender);\n    }\n\n    /**\n     * @dev        Transfers user data in the campaign to another verifed user\n     * @param      _oldAddress    Address of the user transferring\n     * @param      _newAddress    Address of the user being transferred to\n     */\n    function transferCampaignUserData(address _oldAddress, address _newAddress)\n        external\n        onlyFactory\n        nonReentrant\n        whenNotPaused\n        userIsVerified(_newAddress)\n    {\n        require(\n            campaignState == CAMPAIGN_STATE.COLLECTION ||\n                campaignState == CAMPAIGN_STATE.LIVE\n        );\n        require(approvers[_oldAddress]);\n\n        // transfer balance\n        userTotalContribution[_newAddress] = userTotalContribution[\n            _oldAddress\n        ];\n        userTotalContribution[_oldAddress] = 0;\n\n        // transfer approver account\n        approvers[_oldAddress] = false;\n        approvers[_newAddress] = true;\n\n        CampaignRewardLib._transferRewards(\n            campaignRewardContract,\n            _oldAddress,\n            _newAddress\n        );\n\n        emit CampaignUserDataTransferred(\n            campaignID,\n            _oldAddress,\n            _newAddress,\n            msg.sender\n        );\n    }\n\n    /**\n     * @dev         Modifies campaign details while it's not approved\n     * @param      _target                              Contribution target of the campaign\n     * @param      _minimumContribution                 The minimum amout required to be an approver\n     * @param      _duration                            How long until the campaign stops receiving contributions\n     * @param      _goalType                            If flexible the campaign owner is able to create requests if targe isn't met, fixed opposite\n     * @param      _token                               Address of token to be used for transactions by default\n     * @param      _allowContributionAfterTargetIsMet   Indicates if the campaign can receive contributions after duration expires\n     */\n    function setCampaignSettings(\n        uint256 _target,\n        uint256 _minimumContribution,\n        uint256 _duration,\n        uint256 _goalType,\n        address _token,\n        bool _allowContributionAfterTargetIsMet\n    ) external adminOrFactory campaignIsNotApproved userIsVerified(msg.sender) {\n        require(\n            _minimumContribution >=\n                CampaignFactoryLib.getCampaignFactoryConfig(\n                    campaignFactoryContract,\n                    \"minimumContributionAllowed\"\n                ) &&\n                _minimumContribution <=\n                CampaignFactoryLib.getCampaignFactoryConfig(\n                    campaignFactoryContract,\n                    \"maximumContributionAllowed\"\n                ),\n            \"contribution deficit\"\n        );\n        require(\n            campaignFactoryContract.tokensApproved(_token),\n            \"invalid token\"\n        );\n        require(\n            _target >=\n                CampaignFactoryLib.getCampaignFactoryConfig(\n                    campaignFactoryContract,\n                    \"minimumCampaignTarget\"\n                ) &&\n                _target <=\n                CampaignFactoryLib.getCampaignFactoryConfig(\n                    campaignFactoryContract,\n                    \"maximumCampaignTarget\"\n                ),\n            \"target deficit\"\n        );\n\n        target = _target;\n        minimumContribution = _minimumContribution;\n        deadline = block.timestamp.add(_duration);\n        acceptedToken = _token;\n        allowContributionAfterTargetIsMet = _allowContributionAfterTargetIsMet;\n        goalType = GOALTYPE(_goalType);\n\n        emit CampaignSettingsUpdated(\n            campaignID,\n            _minimumContribution,\n            _duration,\n            _goalType,\n            _token,\n            msg.sender\n        );\n    }\n\n    /**\n     * @dev        Extends campaign contribution deadline\n     * @param      _time    How long until the campaign stops receiving contributions\n     */\n    function extendDeadline(uint256 _time)\n        external\n        adminOrFactory\n        userIsVerified(msg.sender)\n        campaignIsActive\n        nonReentrant\n        whenNotPaused\n    {\n        require(block.timestamp > deadline);\n        require(\n            deadlineSetTimes <\n                CampaignFactoryLib.getCampaignFactoryConfig(\n                    campaignFactoryContract,\n                    \"deadlineStrikesAllowed\"\n                ),\n            \"exhausted deadline strikes\"\n        );\n        require(\n            _time <=\n                CampaignFactoryLib.getCampaignFactoryConfig(\n                    campaignFactoryContract,\n                    \"maxDeadlineExtension\"\n                ) &&\n                _time >=\n                CampaignFactoryLib.getCampaignFactoryConfig(\n                    campaignFactoryContract,\n                    \"minDeadlineExtension\"\n                ),\n            \"time deficit\"\n        ); // ensure time exceeds 7 days and less than a day\n\n        deadline = block.timestamp.add(_time);\n\n        // limit ability to increase deadlines\n        deadlineSetTimes = deadlineSetTimes.add(1);\n\n        emit CampaignDeadlineExtended(campaignID, _time, msg.sender);\n    }\n\n    /**\n     * @dev        Sets the number of times the campaign owner can extended deadlines. Restricted to factory\n     * @param      _count   Number of times a campaign owner can extend the deadline\n     */\n    function setDeadlineSetTimes(uint8 _count)\n        external\n        onlyFactory\n        campaignIsActive\n        whenNotPaused\n    {\n        deadlineSetTimes = _count;\n    }\n\n    /**\n     * @dev        Contribute method enables a user become an approver in the campaign\n     * @param      _token       Address of token to be used for transactions by default\n     * @param      _rewardId    Reward unique id\n     * @param      _withReward  Indicates if the user wants a reward alongside their contribution\n     */\n    function contribute(\n        address _token,\n        uint256 _rewardId,\n        bool _withReward\n    )\n        external\n        payable\n        campaignIsActive\n        userIsVerified(msg.sender)\n        whenNotPaused\n        nonReentrant\n    {\n        // campaign owner cannot contribute to own campaign\n        // token must be accepted\n        // contrubution amount must be less than or equal to allowed value from factory\n        require(block.timestamp <= deadline, \"deadline expired\");\n        require(msg.sender != root, \"root owner\");\n        require(_token == acceptedToken, \"invalid token\");\n        require(msg.value >= minimumContribution, \"value too low\");\n        require(\n            msg.value <=\n                CampaignFactoryLib.getCampaignFactoryConfig(\n                    campaignFactoryContract,\n                    \"maximumContributionAllowed\"\n                ),\n            \"value too high\"\n        );\n\n        if (!allowContributionAfterTargetIsMet) {\n            // check user contribution added to current total contribution doesn't exceed target\n            // if it does, calculate the amount to target completion return it back to user to change contribution value\n            require(\n                msg.value <= target &&\n                    totalCampaignContribution.add(msg.value) <= target,\n                \"exceeds target\"\n            );\n        }\n\n        if (_withReward) {\n            CampaignRewardLib._assignReward(\n                campaignRewardContract,\n                _rewardId,\n                msg.value,\n                msg.sender\n            );\n        }\n\n        if (!approvers[msg.sender]) {\n            approversCount = approversCount.add(1);\n            approvers[msg.sender] = true;\n        }\n\n        totalCampaignContribution = totalCampaignContribution.add(msg.value);\n        campaignBalance = campaignBalance.add(msg.value);\n        userTotalContribution[msg.sender] = userTotalContribution[msg.sender]\n            .add(msg.value);\n\n        // keep track of when target is met\n        if (totalCampaignContribution >= target) {\n            campaignState = CAMPAIGN_STATE.LIVE;\n            emit TargetMet(campaignID, totalCampaignContribution, msg.sender);\n        }\n\n        SafeERC20Upgradeable.safeTransferFrom(\n            IERC20Upgradeable(acceptedToken),\n            msg.sender,\n            address(this),\n            msg.value\n        );\n\n        emit ContributionMade(campaignID, msg.value, _rewardId, _withReward, msg.sender);\n    }\n\n    /**\n     * @dev        Allows withdrawal of contribution by a user, works if campaign target isn't met\n     * @param      _wallet    Address where amount is delivered\n     */\n    function withdrawOwnContribution(address payable _wallet)\n        external\n        userIsVerified(msg.sender)\n        nonReentrant\n    {\n        require(!withdrawalsPaused);\n        _withdrawContribution(msg.sender, _wallet);\n    }\n\n    /**\n     * @dev        Allows withdrawal of balance by factory on behalf of a user. \n                   Cases where users wallet is compromised\n     * @param      _user      User whose funds are being requested\n     * @param      _wallet    Address where amount is delivered\n     */\n    function withdrawContributionForUser(address _user, address payable _wallet)\n        external\n        onlyFactory\n        nonReentrant\n    {\n        require(!withdrawalsPaused);\n        _withdrawContribution(_user, _wallet);\n    }\n\n    /**\n     * @dev        Used to measure user funds left after request finalizations\n     * @param      _user    Address of user check is carried out on\n     */\n    function userContributionLoss(address _user) public view returns (uint256) {\n        require(!userContributionWithdrawn[_user], \"balance withdrawn\");\n\n        // calculate % loss between totalCampaginContribution and campaginBalance\n        DecimalMath.UFixed memory percentTakenSoFar = DecimalMath.muld(\n            DecimalMath.divd(\n                totalCampaignContribution.sub(campaignBalance),\n                totalCampaignContribution\n            ),\n            percent\n        );\n        // calculate % loss of userBalance and subtract loss\n        uint256 userLoss = DecimalMath.muldrup(\n            userTotalContribution[_user],\n            DecimalMath.divd(percentTakenSoFar, percent)\n        );\n\n        return userLoss;\n    }\n\n    /**\n     * @dev        Private `_withdrawContribution` implemented by `withdrawOwnContribution` and `withdrawContributionForUser`\n     * @param      _user      User whose funds are being requested\n     * @param      _wallet    Address where amount is delivered\n     */\n    function _withdrawContribution(address _user, address _wallet) private {\n        // if the campaign state is neither unsuccessful and in review and there are reviews\n        // allow withdrawls\n        require(address(_wallet) != address(0));\n        require(!userContributionWithdrawn[_user], \"balance withdrawn\");\n        require(approvers[_user], \"non approver\");\n\n        if (\n            campaignState != CAMPAIGN_STATE.UNSUCCESSFUL &&\n            campaignState != CAMPAIGN_STATE.REVIEW &&\n            reviewCount < 1\n        ) {\n            // pledge collection ongoing and no request was successful\n            require(\n                campaignState == CAMPAIGN_STATE.COLLECTION,\n                \"campaign no longer in collection stage\"\n            );\n            require(finalizedRequestCount < 1, \"requests have been finalized\");\n        }\n        uint256 maxBalance = userTotalContribution[_user].sub(\n            userContributionLoss(_user)\n        );\n\n        // no longer eligible for any reward if campaign is not unsuccessful or in review\n        // for record keeping purposes\n        if (\n            campaignState != CAMPAIGN_STATE.UNSUCCESSFUL &&\n            campaignState != CAMPAIGN_STATE.REVIEW\n        ) {\n            CampaignRewardLib._renounceRewards(campaignRewardContract, _user);\n\n            // decrement total contributions to campaign\n            campaignBalance = campaignBalance.sub(maxBalance);\n            totalCampaignContribution = totalCampaignContribution.sub(\n                maxBalance\n            );\n\n            // mark user as a non contributor\n            approvers[_user] = false;\n\n            // reduce approvers count\n            approversCount = approversCount.sub(1);\n\n            userTotalContribution[_user] = 0;\n        } else {\n            userTotalContribution[_user] = userTotalContribution[_user].sub(\n                maxBalance\n            );\n        }\n        userContributionWithdrawn[_user] = true;\n\n        // transfer to _user\n        SafeERC20Upgradeable.safeTransfer(\n            IERC20Upgradeable(acceptedToken),\n            _wallet,\n            maxBalance\n        );\n\n        emit ContributionWithdrawn(campaignID, maxBalance, _user, msg.sender);\n    }\n\n    /**\n     * @dev        Creates a formal request to withdraw funds from user contributions called by the campagn manager or factory\n                   Restricted unless target is met and deadline is expired\n     * @param      _recipient   Address where requested funds are deposited\n     * @param      _value       Amount being requested by the campaign manager\n     * @param      _duration    Duration until users aren't able to vote on the request\n     */\n    function createRequest(\n        address payable _recipient,\n        uint256 _value,\n        uint256 _duration\n    )\n        external\n        adminOrFactory\n        campaignIsActive\n        userIsVerified(msg.sender)\n        whenNotPaused\n    {\n        require(address(_recipient) != address(0));\n\n        if (totalCampaignContribution < target)\n            require(block.timestamp >= deadline, \"deadline not expired\");\n        \n        if (goalType == GOALTYPE.FIXED) {\n            require(\n                totalCampaignContribution >= target &&\n                    campaignState == CAMPAIGN_STATE.LIVE,\n                \"target not met\"\n            );\n        }\n        require(\n            _value >=\n                CampaignFactoryLib.getCampaignFactoryConfig(\n                    campaignFactoryContract,\n                    \"minimumRequestAmountAllowed\"\n                ) && _value <=\n                CampaignFactoryLib.getCampaignFactoryConfig(\n                    campaignFactoryContract,\n                    \"maximumRequestAmountAllowed\"\n                ),\n            \"amount deficit\"\n        );\n        require(\n            _value <= campaignBalance,\n            \"request amount cannot be higher than campaign balance\"\n        );\n        require(\n            _duration >=\n                CampaignFactoryLib.getCampaignFactoryConfig(\n                    campaignFactoryContract,\n                    \"minRequestDuration\"\n                ) && _duration <=\n                CampaignFactoryLib.getCampaignFactoryConfig(\n                    campaignFactoryContract,\n                    \"maxRequestDuration\"\n                ),\n            \"duration deficit\"\n        );\n\n        // before creating a new request last request should be complete\n        // applies if there's a request before\n        if (requestCount >= 1)\n            require(\n                requests[currentRunningRequest].complete,\n                \"request ongoing\"\n            );\n\n        requests.push(\n            Request(\n                _recipient,\n                false,\n                _value,\n                0,\n                0,\n                0,\n                block.timestamp.add(_duration),\n                false\n            )\n        );\n        requestCount = requestCount.add(1);\n        currentRunningRequest = requests.length.sub(1);\n\n        emit RequestAdded(\n            requests.length.sub(1),\n            campaignID,\n            _duration,\n            _value,\n            _recipient,\n            msg.sender\n        );\n    }\n\n    /**\n     * @dev        Renders a request void and useless\n     * @param      _requestId   ID of request being voided\n     */\n    function voidRequest(uint256 _requestId)\n        external\n        adminOrFactory\n        campaignIsActive\n        userIsVerified(msg.sender)\n        whenNotPaused\n    {\n        // request must not be void\n        // request must have no votes\n        // request should not have been finalized\n        require(!requests[_requestId].void, \"voided\");\n        require(requests[_requestId].approvalCount < 1, \"has approvals\");\n        // require(!requests[_requestId].complete, \"already finalized\");\n\n        requests[_requestId].void = true;\n\n        emit RequestVoided(_requestId, campaignID, msg.sender);\n    }\n\n    /**\n     * @dev        Approvers only method which approves spending request issued by the campaign manager or factory\n     * @param      _requestId   ID of request being voted on\n     * @param      _support     An integer of 0 for against, 1 for in-favor, and 2 for abstain\n     */\n    function voteOnRequest(uint256 _requestId, uint8 _support)\n        external\n        campaignIsActive\n        userIsVerified(msg.sender)\n        whenNotPaused\n    {\n        require(approvers[msg.sender], \"non approver\");\n        require(!hasVoted[_requestId][msg.sender], \"voted\");\n        require(\n            block.timestamp <= requests[_requestId].duration,\n            \"request expired\"\n        );\n\n        require(!requests[_requestId].void, \"voided\");\n\n        hasVoted[_requestId][msg.sender] = true;\n        requestSupport[_requestId][msg.sender] = _support;\n\n        if (_support == 0) {\n            requests[_requestId].againstCount = requests[_requestId]\n                .againstCount\n                .add(1);\n        } else if (_support == 1) {\n            requests[_requestId].approvalCount = requests[_requestId]\n                .approvalCount\n                .add(1);\n        } else {\n            requests[_requestId].abstainedCount = requests[_requestId]\n                .abstainedCount\n                .add(1);\n        }\n\n        emit Voted(_requestId, _support, campaignID, msg.sender);\n    }\n\n    /**\n     * @dev        Approvers only method which cancels initial vote on a request\n     * @param      _requestId   ID of request being voted on\n     */\n    function cancelVote(uint256 _requestId)\n        external\n        campaignIsActive\n        userIsVerified(msg.sender)\n        whenNotPaused\n    {\n        require(approvers[msg.sender], \"non approver\");\n        require(\n            block.timestamp <= requests[_requestId].duration,\n            \"request expired\"\n        );\n        require(hasVoted[_requestId][msg.sender], \"vote first\");\n\n        hasVoted[_requestId][msg.sender] = false;\n\n        if (requestSupport[_requestId][msg.sender] == 0) {\n            requests[_requestId].againstCount = requests[_requestId]\n                .againstCount\n                .sub(1);\n        } else if (requestSupport[_requestId][msg.sender] == 1) {\n            requests[_requestId].approvalCount = requests[_requestId]\n                .approvalCount\n                .sub(1);\n        } else {\n            requests[_requestId].abstainedCount = requests[_requestId]\n                .abstainedCount\n                .sub(1);\n        }\n\n        emit VoteCancelled(\n            _requestId,\n            requestSupport[_requestId][msg.sender],\n            campaignID,\n            msg.sender\n        );\n    }\n\n    /**\n     * @dev        Withdrawal method called only when a request receives the right amount votes\n     * @param      _requestId      ID of request being withdrawn\n     */\n    function finalizeRequest(uint256 _requestId)\n        external\n        adminOrFactory\n        campaignIsActive\n        userIsVerified(msg.sender)\n        whenNotPaused\n        nonReentrant\n    {\n        Request storage request = requests[_requestId];\n        // more than 50% of approvers to finalize\n        DecimalMath.UFixed memory percentOfRequestApprovals = DecimalMath.muld(\n            DecimalMath.divd(\n                DecimalMath.toUFixed(request.approvalCount),\n                DecimalMath.toUFixed(approversCount)\n            ),\n            percent\n        );\n        uint256 requestFinalizationThreshold = 51;\n        require(\n            percentOfRequestApprovals.value >=\n                requestFinalizationThreshold.mul(DecimalMath.UNIT),\n            \"approval deficit\"\n        );\n        require(!request.complete, \"finalized\");\n\n        DecimalMath.UFixed memory factoryFee = DecimalMath.muld(\n            DecimalMath.divd(\n                CampaignFactoryLib.factoryPercentFee(\n                    campaignFactoryContract,\n                    campaignID\n                ),\n                percent\n            ),\n            request.value\n        );\n\n        uint256[2] memory payouts = [\n            request.value.sub(factoryFee.value),\n            factoryFee.value\n        ];\n        address payable[2] memory addresses = [\n            request.recipient,\n            campaignFactoryContract.factoryWallet()\n        ];\n\n        request.complete = true;\n        finalizedRequestCount = finalizedRequestCount.add(1);\n        campaignBalance = campaignBalance.sub(request.value);\n\n        CampaignFactoryLib.sendCommissionFee(\n            campaignFactoryContract,\n            address(this),\n            factoryFee.value\n        );\n\n        for (uint256 i = 0; i < addresses.length; i++) {\n            SafeERC20Upgradeable.safeTransfer(\n                IERC20Upgradeable(acceptedToken),\n                addresses[i],\n                payouts[i]\n            );\n        }\n\n        emit RequestComplete(_requestId, campaignID, msg.sender);\n    }\n\n    /// @dev Pauses the campaign and switches `campaignState` to `REVIEW` indicating it's ready to be reviewd by it's approvers after the campaign is over\n    function reviewMode()\n        external\n        adminOrFactory\n        campaignIsActive\n        userIsVerified(msg.sender)\n        whenNotPaused\n    {\n        // ensure finalized requests is more than 1\n        // ensure no pending request\n        // ensure campaign state is running\n        require(\n            campaignState == CAMPAIGN_STATE.LIVE ||\n                campaignState == CAMPAIGN_STATE.COLLECTION,\n            \"campaign not ongoing\"\n        );\n        require(finalizedRequestCount >= 1, \"no finalized requests\");\n        require(requests[currentRunningRequest].complete, \"request ongoing\");\n\n        campaignState = CAMPAIGN_STATE.REVIEW;\n        _pause();\n\n        emit CampaignStateChange(campaignID, CAMPAIGN_STATE.REVIEW, msg.sender);\n    }\n\n    /// @dev User acknowledgement of review state enabled by the campaign owner\n    function reviewCampaignPerformance()\n        external\n        userIsVerified(msg.sender)\n        campaignIsActive\n        whenPaused\n    {\n        require(\n            campaignState == CAMPAIGN_STATE.REVIEW,\n            \"not in review\"\n        );\n        require(!reviewed[msg.sender], \"reviewed\");\n        require(approvers[msg.sender], \"non approver\");\n\n        reviewed[msg.sender] = true;\n\n        reviewCount = reviewCount.add(1);\n\n        emit CampaignReviewed(campaignID, msg.sender);\n    }\n\n    /// @dev Called by campaign manager to mark the campaign as complete right after it secured enough reviews from users\n    function markCampaignComplete()\n        external\n        userIsVerified(msg.sender)\n        adminOrFactory\n        campaignIsActive\n        whenPaused\n    {\n        // check if reviewers count > 80% of approvers set campaign state to complete\n        DecimalMath.UFixed memory percentOfApprovals = DecimalMath.muld(\n            DecimalMath.divd(\n                DecimalMath.toUFixed(reviewCount),\n                DecimalMath.toUFixed(approversCount)\n            ),\n            percent\n        );\n        require(\n            campaignState == CAMPAIGN_STATE.REVIEW,\n            \"not in review\"\n        );\n        require(\n            percentOfApprovals.value >=\n                CampaignFactoryLib\n                    .getCampaignFactoryConfig(\n                        campaignFactoryContract,\n                        \"reviewThresholdMark\"\n                    )\n                    .mul(DecimalMath.UNIT),\n            \"review deficit\"\n        );\n        campaignState = CAMPAIGN_STATE.COMPLETE;\n\n        emit CampaignStateChange(\n            campaignID,\n            CAMPAIGN_STATE.COMPLETE,\n            msg.sender\n        );\n    }\n    \n    /// @dev Called by an approver to report a campaign to factory. Campaign must be in collection or live state\n    function reportCampaign()\n        external\n        userIsVerified(msg.sender)\n        campaignIsActive\n        whenNotPaused\n    {\n        require(requestCount >= 1, \"no requests\");\n        require(approvers[msg.sender], \"non approver\");\n        require(\n            campaignState == CAMPAIGN_STATE.COLLECTION ||\n                campaignState == CAMPAIGN_STATE.LIVE,\n            \"not in collection or live state\"\n        );\n        require(!reported[msg.sender], \"reported\");\n\n        reported[msg.sender] = true;\n        reportCount = reportCount.add(1);\n\n        DecimalMath.UFixed memory percentOfReports = DecimalMath.muld(\n            DecimalMath.divd(\n                DecimalMath.toUFixed(reportCount),\n                DecimalMath.toUFixed(approversCount)\n            ),\n            percent\n        );\n        \n        if (percentOfReports.value \n            >= CampaignFactoryLib.getCampaignFactoryConfig(campaignFactoryContract, \"reportThresholdMark\").mul(DecimalMath.UNIT)\n        ) {\n            campaignState = CAMPAIGN_STATE.UNSUCCESSFUL;\n            _pause();\n        }\n\n        emit CampaignReported(campaignID, msg.sender);\n    }\n\n    /// @dev Changes campaign state\n    function setCampaignState(uint256 _state) external onlyFactory {\n        campaignState = CAMPAIGN_STATE(_state);\n\n        emit CampaignStateChange(\n            campaignID,\n            CAMPAIGN_STATE(_state),\n            msg.sender\n        );\n    }\n\n    /**\n     * @dev        Pauses or Unpauses withdrawals depending on state passed in argument\n     * @param      _state      Indicates pause or unpause state\n     */\n    function toggleWithdrawalState(bool _state) external onlyFactory {\n        withdrawalsPaused = _state;\n    }\n\n    /// @dev Unpauses the campaign, transactions in the campaign resume per usual\n    function unpauseCampaign() external whenPaused onlyFactory {\n        _unpause();\n    }\n\n    /// @dev Pauses the campaign, it halts all transactions in the campaign\n    function pauseCampaign() external whenNotPaused onlyFactory {\n        _pause();\n    }\n}\n",
  "sourcePath": "/Users/ngcx/Desktop/Web Dev/DApps/crowdship/crowdship-v1-core/contracts/Campaign.sol",
  "compiler": {
    "name": "solc",
    "version": "0.8.0+commit.c7dfd78e.Emscripten.clang"
  },
  "schemaVersion": "3.4.1",
  "updatedAt": "2021-09-23T16:35:06.611Z",
  "devdoc": {
    "events": {
      "CampaignOwnerSet(uint256,address,address)": {
        "details": "`Initializer Event`"
      },
      "CampaignOwnershipTransferred(uint256,address,address)": {
        "details": "`Campaign Config Events`"
      },
      "CampaignReviewed(uint256,address)": {
        "details": "`Review Events`"
      },
      "CampaignStateChange(uint256,uint8,address)": {
        "details": "`Campaign State Events`"
      },
      "CampaignUserDataTransferred(uint256,address,address,address)": {
        "details": "`Approval Transfer`"
      },
      "ContributionMade(uint256,uint256,uint256,bool,address)": {
        "details": "`Contribution Events`"
      },
      "RequestAdded(uint256,uint256,uint256,uint256,address,address)": {
        "details": "`Request Events`"
      },
      "Voted(uint256,uint8,uint256,address)": {
        "details": "`Vote Events`"
      }
    },
    "kind": "dev",
    "methods": {
      "__Campaign_init(address,address,address,uint256)": {
        "details": "Constructor",
        "params": {
          "_campaignFactory": "Address of factory",
          "_root": "Address of campaign owner"
        }
      },
      "cancelVote(uint256)": {
        "details": "Approvers only method which cancels initial vote on a request",
        "params": {
          "_requestId": "ID of request being voted on"
        }
      },
      "contribute(address,uint256,bool)": {
        "details": "Contribute method enables a user become an approver in the campaign",
        "params": {
          "_rewardId": "Reward unique id",
          "_token": "Address of token to be used for transactions by default",
          "_withReward": "Indicates if the user wants a reward alongside their contribution"
        }
      },
      "createRequest(address,uint256,uint256)": {
        "details": "Creates a formal request to withdraw funds from user contributions called by the campagn manager or factory Restricted unless target is met and deadline is expired",
        "params": {
          "_duration": "Duration until users aren't able to vote on the request",
          "_recipient": "Address where requested funds are deposited",
          "_value": "Amount being requested by the campaign manager"
        }
      },
      "extendDeadline(uint256)": {
        "details": "Extends campaign contribution deadline",
        "params": {
          "_time": "How long until the campaign stops receiving contributions"
        }
      },
      "finalizeRequest(uint256)": {
        "details": "Withdrawal method called only when a request receives the right amount votes",
        "params": {
          "_requestId": "ID of request being withdrawn"
        }
      },
      "getRoleAdmin(bytes32)": {
        "details": "Returns the admin role that controls `role`. See {grantRole} and {revokeRole}. To change a role's admin, use {_setRoleAdmin}."
      },
      "grantRole(bytes32,address)": {
        "details": "Grants `role` to `account`. If `account` had not been already granted `role`, emits a {RoleGranted} event. Requirements: - the caller must have ``role``'s admin role."
      },
      "hasRole(bytes32,address)": {
        "details": "Returns `true` if `account` has been granted `role`."
      },
      "markCampaignComplete()": {
        "details": "Called by campaign manager to mark the campaign as complete right after it secured enough reviews from users"
      },
      "pauseCampaign()": {
        "details": "Pauses the campaign, it halts all transactions in the campaign"
      },
      "paused()": {
        "details": "Returns true if the contract is paused, and false otherwise."
      },
      "renounceRole(bytes32,address)": {
        "details": "Revokes `role` from the calling account. Roles are often managed via {grantRole} and {revokeRole}: this function's purpose is to provide a mechanism for accounts to lose their privileges if they are compromised (such as when a trusted device is misplaced). If the calling account had been granted `role`, emits a {RoleRevoked} event. Requirements: - the caller must be `account`."
      },
      "reportCampaign()": {
        "details": "Called by an approver to report a campaign to factory. Campaign must be in collection or live state"
      },
      "reviewCampaignPerformance()": {
        "details": "User acknowledgement of review state enabled by the campaign owner"
      },
      "reviewMode()": {
        "details": "Pauses the campaign and switches `campaignState` to `REVIEW` indicating it's ready to be reviewd by it's approvers after the campaign is over"
      },
      "revokeRole(bytes32,address)": {
        "details": "Revokes `role` from `account`. If `account` had been granted `role`, emits a {RoleRevoked} event. Requirements: - the caller must have ``role``'s admin role."
      },
      "setCampaignSettings(uint256,uint256,uint256,uint256,address,bool)": {
        "details": "Modifies campaign details while it's not approved",
        "params": {
          "_allowContributionAfterTargetIsMet": "Indicates if the campaign can receive contributions after duration expires",
          "_duration": "How long until the campaign stops receiving contributions",
          "_goalType": "If flexible the campaign owner is able to create requests if targe isn't met, fixed opposite",
          "_minimumContribution": "The minimum amout required to be an approver",
          "_target": "Contribution target of the campaign",
          "_token": "Address of token to be used for transactions by default"
        }
      },
      "setCampaignState(uint256)": {
        "details": "Changes campaign state"
      },
      "setDeadlineSetTimes(uint8)": {
        "details": "Sets the number of times the campaign owner can extended deadlines. Restricted to factory",
        "params": {
          "_count": "Number of times a campaign owner can extend the deadline"
        }
      },
      "supportsInterface(bytes4)": {
        "details": "See {IERC165-supportsInterface}."
      },
      "toggleWithdrawalState(bool)": {
        "details": "Pauses or Unpauses withdrawals depending on state passed in argument",
        "params": {
          "_state": "Indicates pause or unpause state"
        }
      },
      "transferCampaignOwnership(address)": {
        "details": "Transfers campaign ownership from one user to another.",
        "params": {
          "_newRoot": "Address of the user campaign ownership is being transfered to"
        }
      },
      "transferCampaignUserData(address,address)": {
        "details": "Transfers user data in the campaign to another verifed user",
        "params": {
          "_newAddress": "Address of the user being transferred to",
          "_oldAddress": "Address of the user transferring"
        }
      },
      "unpauseCampaign()": {
        "details": "Unpauses the campaign, transactions in the campaign resume per usual"
      },
      "userContributionLoss(address)": {
        "details": "Used to measure user funds left after request finalizations",
        "params": {
          "_user": "Address of user check is carried out on"
        }
      },
      "voidRequest(uint256)": {
        "details": "Renders a request void and useless",
        "params": {
          "_requestId": "ID of request being voided"
        }
      },
      "voteOnRequest(uint256,uint8)": {
        "details": "Approvers only method which approves spending request issued by the campaign manager or factory",
        "params": {
          "_requestId": "ID of request being voted on",
          "_support": "An integer of 0 for against, 1 for in-favor, and 2 for abstain"
        }
      },
      "withdrawContributionForUser(address,address)": {
        "details": "Allows withdrawal of balance by factory on behalf of a user.  Cases where users wallet is compromised",
        "params": {
          "_user": "User whose funds are being requested",
          "_wallet": "Address where amount is delivered"
        }
      },
      "withdrawOwnContribution(address)": {
        "details": "Allows withdrawal of contribution by a user, works if campaign target isn't met",
        "params": {
          "_wallet": "Address where amount is delivered"
        }
      }
    },
    "stateVariables": {
      "reviewCount": {
        "details": "`Review`"
      }
    },
    "version": 1
  },
  "userdoc": {
    "kind": "user",
    "methods": {},
    "version": 1
  }
}