{
  "contractName": "CampaignRewards",
  "abi": [
    {
      "anonymous": false,
      "inputs": [
        {
          "indexed": true,
          "internalType": "uint256",
          "name": "campaignId",
          "type": "uint256"
        },
        {
          "indexed": false,
          "internalType": "address",
          "name": "owner",
          "type": "address"
        },
        {
          "indexed": false,
          "internalType": "address",
          "name": "sender",
          "type": "address"
        }
      ],
      "name": "CampaignRewardOwnerSet",
      "type": "event"
    },
    {
      "anonymous": false,
      "inputs": [
        {
          "indexed": true,
          "internalType": "uint256",
          "name": "rewardId",
          "type": "uint256"
        },
        {
          "indexed": false,
          "internalType": "uint256",
          "name": "campaignId",
          "type": "uint256"
        },
        {
          "indexed": false,
          "internalType": "uint256",
          "name": "value",
          "type": "uint256"
        },
        {
          "indexed": false,
          "internalType": "uint256",
          "name": "deliveryDate",
          "type": "uint256"
        },
        {
          "indexed": false,
          "internalType": "uint256",
          "name": "stock",
          "type": "uint256"
        },
        {
          "indexed": false,
          "internalType": "bool",
          "name": "active",
          "type": "bool"
        },
        {
          "indexed": false,
          "internalType": "address",
          "name": "sender",
          "type": "address"
        }
      ],
      "name": "RewardCreated",
      "type": "event"
    },
    {
      "anonymous": false,
      "inputs": [
        {
          "indexed": true,
          "internalType": "uint256",
          "name": "rewardId",
          "type": "uint256"
        },
        {
          "indexed": false,
          "internalType": "uint256",
          "name": "campaignId",
          "type": "uint256"
        },
        {
          "indexed": false,
          "internalType": "address",
          "name": "sender",
          "type": "address"
        }
      ],
      "name": "RewardDestroyed",
      "type": "event"
    },
    {
      "anonymous": false,
      "inputs": [
        {
          "indexed": true,
          "internalType": "uint256",
          "name": "rewardId",
          "type": "uint256"
        },
        {
          "indexed": false,
          "internalType": "uint256",
          "name": "campaignId",
          "type": "uint256"
        },
        {
          "indexed": false,
          "internalType": "uint256",
          "name": "value",
          "type": "uint256"
        },
        {
          "indexed": false,
          "internalType": "uint256",
          "name": "deliveryDate",
          "type": "uint256"
        },
        {
          "indexed": false,
          "internalType": "uint256",
          "name": "stock",
          "type": "uint256"
        },
        {
          "indexed": false,
          "internalType": "bool",
          "name": "active",
          "type": "bool"
        },
        {
          "indexed": false,
          "internalType": "address",
          "name": "sender",
          "type": "address"
        }
      ],
      "name": "RewardModified",
      "type": "event"
    },
    {
      "anonymous": false,
      "inputs": [
        {
          "indexed": true,
          "internalType": "uint256",
          "name": "rewardId",
          "type": "uint256"
        },
        {
          "indexed": false,
          "internalType": "uint256",
          "name": "campaignId",
          "type": "uint256"
        },
        {
          "indexed": false,
          "internalType": "uint256",
          "name": "amount",
          "type": "uint256"
        },
        {
          "indexed": false,
          "internalType": "address",
          "name": "sender",
          "type": "address"
        }
      ],
      "name": "RewardRecipientAdded",
      "type": "event"
    },
    {
      "anonymous": false,
      "inputs": [
        {
          "indexed": true,
          "internalType": "uint256",
          "name": "rewardRecipientId",
          "type": "uint256"
        },
        {
          "indexed": false,
          "internalType": "uint256",
          "name": "campaignId",
          "type": "uint256"
        },
        {
          "indexed": false,
          "internalType": "address",
          "name": "sender",
          "type": "address"
        }
      ],
      "name": "RewardRecipientApproval",
      "type": "event"
    },
    {
      "anonymous": false,
      "inputs": [
        {
          "indexed": true,
          "internalType": "uint256",
          "name": "rewardId",
          "type": "uint256"
        },
        {
          "indexed": false,
          "internalType": "uint256",
          "name": "campaignId",
          "type": "uint256"
        },
        {
          "indexed": false,
          "internalType": "uint256",
          "name": "count",
          "type": "uint256"
        },
        {
          "indexed": false,
          "internalType": "address",
          "name": "sender",
          "type": "address"
        }
      ],
      "name": "RewardStockIncreased",
      "type": "event"
    },
    {
      "anonymous": false,
      "inputs": [
        {
          "indexed": true,
          "internalType": "uint256",
          "name": "rewardRecipientId",
          "type": "uint256"
        },
        {
          "indexed": false,
          "internalType": "uint256",
          "name": "campaignId",
          "type": "uint256"
        },
        {
          "indexed": false,
          "internalType": "bool",
          "name": "status",
          "type": "bool"
        },
        {
          "indexed": false,
          "internalType": "address",
          "name": "sender",
          "type": "address"
        }
      ],
      "name": "RewarderApproval",
      "type": "event"
    },
    {
      "anonymous": false,
      "inputs": [
        {
          "indexed": true,
          "internalType": "bytes32",
          "name": "role",
          "type": "bytes32"
        },
        {
          "indexed": true,
          "internalType": "bytes32",
          "name": "previousAdminRole",
          "type": "bytes32"
        },
        {
          "indexed": true,
          "internalType": "bytes32",
          "name": "newAdminRole",
          "type": "bytes32"
        }
      ],
      "name": "RoleAdminChanged",
      "type": "event"
    },
    {
      "anonymous": false,
      "inputs": [
        {
          "indexed": true,
          "internalType": "bytes32",
          "name": "role",
          "type": "bytes32"
        },
        {
          "indexed": true,
          "internalType": "address",
          "name": "account",
          "type": "address"
        },
        {
          "indexed": true,
          "internalType": "address",
          "name": "sender",
          "type": "address"
        }
      ],
      "name": "RoleGranted",
      "type": "event"
    },
    {
      "anonymous": false,
      "inputs": [
        {
          "indexed": true,
          "internalType": "bytes32",
          "name": "role",
          "type": "bytes32"
        },
        {
          "indexed": true,
          "internalType": "address",
          "name": "account",
          "type": "address"
        },
        {
          "indexed": true,
          "internalType": "address",
          "name": "sender",
          "type": "address"
        }
      ],
      "name": "RoleRevoked",
      "type": "event"
    },
    {
      "inputs": [],
      "name": "DEFAULT_ADMIN_ROLE",
      "outputs": [
        {
          "internalType": "bytes32",
          "name": "",
          "type": "bytes32"
        }
      ],
      "stateMutability": "view",
      "type": "function"
    },
    {
      "inputs": [],
      "name": "campaignID",
      "outputs": [
        {
          "internalType": "uint256",
          "name": "",
          "type": "uint256"
        }
      ],
      "stateMutability": "view",
      "type": "function"
    },
    {
      "inputs": [
        {
          "internalType": "bytes32",
          "name": "role",
          "type": "bytes32"
        }
      ],
      "name": "getRoleAdmin",
      "outputs": [
        {
          "internalType": "bytes32",
          "name": "",
          "type": "bytes32"
        }
      ],
      "stateMutability": "view",
      "type": "function"
    },
    {
      "inputs": [
        {
          "internalType": "bytes32",
          "name": "role",
          "type": "bytes32"
        },
        {
          "internalType": "address",
          "name": "account",
          "type": "address"
        }
      ],
      "name": "grantRole",
      "outputs": [],
      "stateMutability": "nonpayable",
      "type": "function"
    },
    {
      "inputs": [
        {
          "internalType": "bytes32",
          "name": "role",
          "type": "bytes32"
        },
        {
          "internalType": "address",
          "name": "account",
          "type": "address"
        }
      ],
      "name": "hasRole",
      "outputs": [
        {
          "internalType": "bool",
          "name": "",
          "type": "bool"
        }
      ],
      "stateMutability": "view",
      "type": "function"
    },
    {
      "inputs": [
        {
          "internalType": "bytes32",
          "name": "role",
          "type": "bytes32"
        },
        {
          "internalType": "address",
          "name": "account",
          "type": "address"
        }
      ],
      "name": "renounceRole",
      "outputs": [],
      "stateMutability": "nonpayable",
      "type": "function"
    },
    {
      "inputs": [
        {
          "internalType": "bytes32",
          "name": "role",
          "type": "bytes32"
        },
        {
          "internalType": "address",
          "name": "account",
          "type": "address"
        }
      ],
      "name": "revokeRole",
      "outputs": [],
      "stateMutability": "nonpayable",
      "type": "function"
    },
    {
      "inputs": [
        {
          "internalType": "uint256",
          "name": "",
          "type": "uint256"
        }
      ],
      "name": "rewardRecipients",
      "outputs": [
        {
          "internalType": "uint256",
          "name": "rewardId",
          "type": "uint256"
        },
        {
          "internalType": "address",
          "name": "user",
          "type": "address"
        },
        {
          "internalType": "bool",
          "name": "deliveryConfirmedByCampaign",
          "type": "bool"
        },
        {
          "internalType": "bool",
          "name": "deliveryConfirmedByUser",
          "type": "bool"
        }
      ],
      "stateMutability": "view",
      "type": "function"
    },
    {
      "inputs": [
        {
          "internalType": "uint256",
          "name": "",
          "type": "uint256"
        }
      ],
      "name": "rewardToRewardRecipientCount",
      "outputs": [
        {
          "internalType": "uint256",
          "name": "",
          "type": "uint256"
        }
      ],
      "stateMutability": "view",
      "type": "function"
    },
    {
      "inputs": [
        {
          "internalType": "uint256",
          "name": "",
          "type": "uint256"
        }
      ],
      "name": "rewards",
      "outputs": [
        {
          "internalType": "uint256",
          "name": "value",
          "type": "uint256"
        },
        {
          "internalType": "uint256",
          "name": "deliveryDate",
          "type": "uint256"
        },
        {
          "internalType": "uint256",
          "name": "stock",
          "type": "uint256"
        },
        {
          "internalType": "bool",
          "name": "exists",
          "type": "bool"
        },
        {
          "internalType": "bool",
          "name": "active",
          "type": "bool"
        }
      ],
      "stateMutability": "view",
      "type": "function"
    },
    {
      "inputs": [],
      "name": "root",
      "outputs": [
        {
          "internalType": "address",
          "name": "",
          "type": "address"
        }
      ],
      "stateMutability": "view",
      "type": "function"
    },
    {
      "inputs": [
        {
          "internalType": "bytes4",
          "name": "interfaceId",
          "type": "bytes4"
        }
      ],
      "name": "supportsInterface",
      "outputs": [
        {
          "internalType": "bool",
          "name": "",
          "type": "bool"
        }
      ],
      "stateMutability": "view",
      "type": "function"
    },
    {
      "inputs": [
        {
          "internalType": "address",
          "name": "",
          "type": "address"
        }
      ],
      "name": "userRewardCount",
      "outputs": [
        {
          "internalType": "uint256",
          "name": "",
          "type": "uint256"
        }
      ],
      "stateMutability": "view",
      "type": "function"
    },
    {
      "inputs": [
        {
          "internalType": "contract CampaignFactory",
          "name": "_campaignFactory",
          "type": "address"
        },
        {
          "internalType": "contract Campaign",
          "name": "_campaign",
          "type": "address"
        },
        {
          "internalType": "address",
          "name": "_campaignOwner",
          "type": "address"
        },
        {
          "internalType": "uint256",
          "name": "_campaignId",
          "type": "uint256"
        }
      ],
      "name": "__CampaignRewards_init",
      "outputs": [],
      "stateMutability": "nonpayable",
      "type": "function"
    },
    {
      "inputs": [
        {
          "internalType": "uint256",
          "name": "_value",
          "type": "uint256"
        },
        {
          "internalType": "uint256",
          "name": "_deliveryDate",
          "type": "uint256"
        },
        {
          "internalType": "uint256",
          "name": "_stock",
          "type": "uint256"
        },
        {
          "internalType": "bool",
          "name": "_active",
          "type": "bool"
        }
      ],
      "name": "createReward",
      "outputs": [],
      "stateMutability": "nonpayable",
      "type": "function"
    },
    {
      "inputs": [
        {
          "internalType": "uint256",
          "name": "_rewardId",
          "type": "uint256"
        },
        {
          "internalType": "uint256",
          "name": "_amount",
          "type": "uint256"
        },
        {
          "internalType": "address",
          "name": "_user",
          "type": "address"
        }
      ],
      "name": "assignReward",
      "outputs": [],
      "stateMutability": "nonpayable",
      "type": "function"
    },
    {
      "inputs": [
        {
          "internalType": "uint256",
          "name": "_rewardId",
          "type": "uint256"
        },
        {
          "internalType": "uint256",
          "name": "_value",
          "type": "uint256"
        },
        {
          "internalType": "uint256",
          "name": "_deliveryDate",
          "type": "uint256"
        },
        {
          "internalType": "uint256",
          "name": "_stock",
          "type": "uint256"
        },
        {
          "internalType": "bool",
          "name": "_active",
          "type": "bool"
        }
      ],
      "name": "modifyReward",
      "outputs": [],
      "stateMutability": "nonpayable",
      "type": "function"
    },
    {
      "inputs": [
        {
          "internalType": "uint256",
          "name": "_rewardId",
          "type": "uint256"
        },
        {
          "internalType": "uint256",
          "name": "_count",
          "type": "uint256"
        }
      ],
      "name": "increaseRewardStock",
      "outputs": [],
      "stateMutability": "nonpayable",
      "type": "function"
    },
    {
      "inputs": [
        {
          "internalType": "uint256",
          "name": "_rewardId",
          "type": "uint256"
        }
      ],
      "name": "destroyReward",
      "outputs": [],
      "stateMutability": "nonpayable",
      "type": "function"
    },
    {
      "inputs": [
        {
          "internalType": "uint256",
          "name": "_rewardRecipientId",
          "type": "uint256"
        },
        {
          "internalType": "bool",
          "name": "_status",
          "type": "bool"
        }
      ],
      "name": "campaignSentReward",
      "outputs": [],
      "stateMutability": "nonpayable",
      "type": "function"
    },
    {
      "inputs": [
        {
          "internalType": "uint256",
          "name": "_rewardRecipientId",
          "type": "uint256"
        }
      ],
      "name": "userReceivedCampaignReward",
      "outputs": [],
      "stateMutability": "nonpayable",
      "type": "function"
    },
    {
      "inputs": [
        {
          "internalType": "address",
          "name": "_user",
          "type": "address"
        }
      ],
      "name": "renounceRewards",
      "outputs": [],
      "stateMutability": "nonpayable",
      "type": "function"
    },
    {
      "inputs": [
        {
          "internalType": "address",
          "name": "_oldAddress",
          "type": "address"
        },
        {
          "internalType": "address",
          "name": "_newAddress",
          "type": "address"
        }
      ],
      "name": "transferRewards",
      "outputs": [],
      "stateMutability": "nonpayable",
      "type": "function"
    }
  ],
  "bytecode": "0x608060405234801561001057600080fd5b50612959806100206000396000f3fe608060405234801561001057600080fd5b506004361061011d5760003560e01c806301ffc9a7146101225780630e6a924b1461014b57806316757c1514610160578063248a9ca3146101735780632d9fac52146101935780632f2ff15d146101b657806336568abe146101c95780633abcc15c146101dc57806349ed2fa9146101ef57806363f2fd75146101f75780638632e9661461020a57806391d148541461021d57806391d7e1ca14610230578063a217fddf14610243578063aaee6a1f1461024b578063b4e34fd81461025e578063c5a2c49814610271578063d222aba514610284578063d547741f14610297578063e9709bf0146102aa578063e9b86572146102bd578063ebf0c717146102d0578063f301af42146102e5575b600080fd5b610135610130366004612161565b610309565b6040516101429190612389565b60405180910390f35b61015e610159366004612189565b610334565b005b61015e61016e366004612215565b610466565b610186610181366004612125565b6105f8565b6040516101429190612394565b6101a66101a1366004612125565b61060d565b604051610142949392919061277b565b61015e6101c436600461213d565b61065a565b61015e6101d736600461213d565b610683565b61015e6101ea366004611fb8565b6106c9565b610186610812565b61015e610205366004612125565b610818565b61015e61021836600461226e565b610ab0565b61013561022b36600461213d565b610d4e565b61018661023e366004611fb8565b610d79565b610186610d8b565b61015e6102593660046121f1565b610d90565b61015e61026c3660046122ae565b610f30565b61018661027f366004612125565b611237565b61015e610292366004612125565b611249565b61015e6102a536600461213d565b6113db565b61015e6102b8366004612236565b6113fa565b61015e6102cb366004611fd4565b611747565b6102d86118ad565b604051610142919061235b565b6102f86102f3366004612125565b6118bc565b6040516101429594939291906127e1565b60006001600160e01b03198216637965db0b60e01b148061032e575061032e82611902565b92915050565b600054610100900460ff168061034d575060005460ff16155b6103725760405162461bcd60e51b815260040161036990612523565b60405180910390fd5b600054610100900460ff1615801561039d576000805460ff1961ff0019909116610100171660011790555b6001600160a01b0383166103c35760405162461bcd60e51b815260040161036990612619565b6103ce60008461191b565b609780546001600160a01b038088166001600160a01b03199283161790925560988054878416908316179055609a849055609980548684169216919091179081905560405184927f5efbfa41f6458745736c9c0e08e7578456f9c46be9cce0396f4860f7ffdc9ed89261044592911690339061236f565b60405180910390a2801561045f576000805461ff00191690555b5050505050565b60975461047c906001600160a01b031633611925565b8061048d575061048d600033610d4e565b6104a95760405162461bcd60e51b81526004016103699061269a565b60975433906000906104c4906001600160a01b0316836119ab565b91508190506104e55760405162461bcd60e51b8152600401610369906126c4565b609b848154811061050657634e487b7160e01b600052603260045260246000fd5b600091825260209091206003600490920201015460ff166105395760405162461bcd60e51b8152600401610369906125cd565b61057e83609b868154811061055e57634e487b7160e01b600052603260045260246000fd5b906000526020600020906004020160020154611afa90919063ffffffff16565b609b858154811061059f57634e487b7160e01b600052603260045260246000fd5b906000526020600020906004020160020181905550837f7414134c654df25878e528445340a3785bec099f91c0742d4d2a65ecefa1dd35609a5485336040516105ea939291906127c2565b60405180910390a250505050565b60009081526065602052604090206001015490565b609d818154811061061d57600080fd5b6000918252602090912060029091020180546001909101549091506001600160a01b0381169060ff600160a01b8204811691600160a81b90041684565b610663826105f8565b6106748161066f611b06565b611b0a565b61067e8383611b6e565b505050565b61068b611b06565b6001600160a01b0316816001600160a01b0316146106bb5760405162461bcd60e51b815260040161036990612715565b6106c58282611bf5565b5050565b609754609a546000916106e7916001600160a01b0390911690611c7a565b5092935050506001600160a01b038216331490506107175760405162461bcd60e51b815260040161036990612431565b6001600160a01b0382166000908152609e60205260409020546001116106c5576001600160a01b0382166000908152609e602052604081208190555b609d5481101561067e576107b66001609c6000609d858154811061078757634e487b7160e01b600052603260045260246000fd5b906000526020600020906002020160000154815260200190815260200160002054611d4d90919063ffffffff16565b609c6000609d84815481106107db57634e487b7160e01b600052603260045260246000fd5b906000526020600020906002020160000154815260200190815260200160002081905550808061080a906128cc565b915050610753565b609a5481565b609754609a546000918291610836916001600160a01b031690611c7a565b9095509350849250508115905061084a5750805b6108665760405162461bcd60e51b815260040161036990612454565b6097543390600090610881906001600160a01b0316836119ab565b91508190506108a25760405162461bcd60e51b8152600401610369906126c4565b6098546108b8906001600160a01b031633611d59565b6108d45760405162461bcd60e51b81526004016103699061263f565b609d85815481106108f557634e487b7160e01b600052603260045260246000fd5b906000526020600020906002020160010160149054906101000a900460ff166109305760405162461bcd60e51b815260040161036990612668565b609d858154811061095157634e487b7160e01b600052603260045260246000fd5b906000526020600020906002020160010160159054906101000a900460ff161561098d5760405162461bcd60e51b815260040161036990612571565b336001600160a01b0316609d86815481106109b857634e487b7160e01b600052603260045260246000fd5b60009182526020909120600160029092020101546001600160a01b0316146109f25760405162461bcd60e51b8152600401610369906124f6565b336000908152609e602052604090205460011115610a225760405162461bcd60e51b815260040161036990612405565b6001609d8681548110610a4557634e487b7160e01b600052603260045260246000fd5b906000526020600020906002020160010160156101000a81548160ff021916908315150217905550847fbf5d52c6c2cbba073247ec436acdf1418a52469e667e774d37b630b23a745e43609a5433604051610aa1929190612764565b60405180910390a25050505050565b609754610ac6906001600160a01b031633611925565b80610ad75750610ad7600033610d4e565b610af35760405162461bcd60e51b81526004016103699061269a565b6097543390600090610b0e906001600160a01b0316836119ab565b9150819050610b2f5760405162461bcd60e51b8152600401610369906126c4565b60975460408051808201909152601a8152791b5a5b9a5b5d5b50dbdb9d1c9a589d5d1a5bdb905b1b1bddd95960321b6020820152610b76916001600160a01b031690611d88565b8611610b945760405162461bcd60e51b8152600401610369906124ce565b60975460408051808201909152601a8152791b585e1a5b5d5b50dbdb9d1c9a589d5d1a5bdb905b1b1bddd95960321b6020820152610bdb916001600160a01b031690611d88565b8610610bf95760405162461bcd60e51b8152600401610369906125f0565b6040805160a0810182528781526020810187815291810186815260016060830181815287151560808501908152609b80548085018255600082905295517fbba9db4cdbea0a37c207bbb83e20f828cd4441c49891101dc94fd20dc8efc34960049097029687015595517fbba9db4cdbea0a37c207bbb83e20f828cd4441c49891101dc94fd20dc8efc34a86015592517fbba9db4cdbea0a37c207bbb83e20f828cd4441c49891101dc94fd20dc8efc34b850155517fbba9db4cdbea0a37c207bbb83e20f828cd4441c49891101dc94fd20dc8efc34c9093018054925160ff199093169315159390931761ff00191661010092151592909202919091179091559054610d0391611d4d565b7f98055e87bd422ea1c5925e809cd101ae140556b32fd1b45267a458451d2c2f1b609a548888888833604051610d3e96959493929190612808565b60405180910390a2505050505050565b60009182526065602090815260408084206001600160a01b0393909316845291905290205460ff1690565b609e6020526000908152604090205481565b600081565b609754609a546000918291610dae916001600160a01b031690611c7a565b90955093508492505081159050610dc25750805b610dde5760405162461bcd60e51b815260040161036990612454565b6097543390600090610df9906001600160a01b0316836119ab565b9150819050610e1a5760405162461bcd60e51b8152600401610369906126c4565b609754610e30906001600160a01b031633611925565b80610e415750610e41600033610d4e565b610e5d5760405162461bcd60e51b81526004016103699061269a565b6001609c6000609d8981548110610e8457634e487b7160e01b600052603260045260246000fd5b9060005260206000209060020201600001548152602001908152602001600020541015610eb057600080fd5b84609d8781548110610ed257634e487b7160e01b600052603260045260246000fd5b906000526020600020906002020160010160146101000a81548160ff021916908315150217905550857fd5effab2dbe73b42a84e0045f9e64e37da0030906c71647cba20f831d0f78705609a548733604051610d3e939291906127a3565b609754610f46906001600160a01b031633611925565b80610f575750610f57600033610d4e565b610f735760405162461bcd60e51b81526004016103699061269a565b6097543390600090610f8e906001600160a01b0316836119ab565b9150819050610faf5760405162461bcd60e51b8152600401610369906126c4565b609b8781548110610fd057634e487b7160e01b600052603260045260246000fd5b600091825260209091206003600490920201015460ff166110035760405162461bcd60e51b8152600401610369906125cd565b6000878152609c60205260409020546001116110315760405162461bcd60e51b8152600401610369906125a8565b60975460408051808201909152601a8152791b5a5b9a5b5d5b50dbdb9d1c9a589d5d1a5bdb905b1b1bddd95960321b6020820152611078916001600160a01b031690611d88565b86116110965760405162461bcd60e51b8152600401610369906124ce565b60975460408051808201909152601a8152791b585e1a5b5d5b50dbdb9d1c9a589d5d1a5bdb905b1b1bddd95960321b60208201526110dd916001600160a01b031690611d88565b86106110fb5760405162461bcd60e51b8152600401610369906125f0565b85609b888154811061111d57634e487b7160e01b600052603260045260246000fd5b90600052602060002090600402016000018190555084609b888154811061115457634e487b7160e01b600052603260045260246000fd5b90600052602060002090600402016001018190555083609b888154811061118b57634e487b7160e01b600052603260045260246000fd5b90600052602060002090600402016002018190555082609b88815481106111c257634e487b7160e01b600052603260045260246000fd5b906000526020600020906004020160030160016101000a81548160ff021916908315150217905550867f5a049960fd4578b5a9a370c5007dbb413e5d773f2a89ad4ae1da6fb457923eba609a54888888883360405161122696959493929190612808565b60405180910390a250505050505050565b609c6020526000908152604090205481565b60975461125f906001600160a01b031633611925565b806112705750611270600033610d4e565b61128c5760405162461bcd60e51b81526004016103699061269a565b60975433906000906112a7906001600160a01b0316836119ab565b91508190506112c85760405162461bcd60e51b8152600401610369906126c4565b6000838152609c60205260409020546001116112f65760405162461bcd60e51b8152600401610369906125a8565b609b838154811061131757634e487b7160e01b600052603260045260246000fd5b600091825260209091206003600490920201015460ff1661134a5760405162461bcd60e51b8152600401610369906125cd565b609b838154811061136b57634e487b7160e01b600052603260045260246000fd5b600091825260208220600490910201818155600181018290556002810191909155600301805461ffff19169055609a5460405184917f3fb1ddbfbfb9211f453210b9a50af2c5ba0bc6c88e012773012c63933aef915e916113ce91903390612764565b60405180910390a2505050565b6113e4826105f8565b6113f08161066f611b06565b61067e8383611bf5565b609754609a54600091611418916001600160a01b0390911690611c7a565b5092935050506001600160a01b038216331490506114485760405162461bcd60e51b815260040161036990612431565b6097548290600090611463906001600160a01b0316836119ab565b91508190506114845760405162461bcd60e51b8152600401610369906126c4565b609b86815481106114a557634e487b7160e01b600052603260045260246000fd5b9060005260206000209060040201600001548510156114d65760405162461bcd60e51b8152600401610369906124ce565b6001609b87815481106114f957634e487b7160e01b600052603260045260246000fd5b90600052602060002090600402016002015410156115295760405162461bcd60e51b8152600401610369906126ef565b609b868154811061154a57634e487b7160e01b600052603260045260246000fd5b600091825260209091206003600490920201015460ff1661157d5760405162461bcd60e51b8152600401610369906125cd565b609b868154811061159e57634e487b7160e01b600052603260045260246000fd5b906000526020600020906004020160030160019054906101000a900460ff166115d95760405162461bcd60e51b81526004016103699061247d565b604080516080810182528781526001600160a01b038681166020808401828152600085870181815260608701828152609d80546001808201835591855298517fd26e832454299e9fabb89e0e5fffdc046d4e14431bc1bf607ffb2e8a1ddecf7b6002909a02998a015593517fd26e832454299e9fabb89e0e5fffdc046d4e14431bc1bf607ffb2e8a1ddecf7c9098018054925191516001600160a01b0319909316989097169790971760ff60a01b1916600160a01b971515979097029690961760ff60a81b1916600160a81b9615159690960295909517909355908352609e9052919020546116c791611afa565b6001600160a01b0385166000908152609e6020908152604080832093909355888252609c905220546116fa906001611afa565b609c600088815260200190815260200160002081905550857f80875519e97dd23c6404c91b1605d584487ac914171de2a417a84136f7ae8602609a548787604051610d3e939291906127c2565b609754609a54600091611765916001600160a01b0390911690611c7a565b5092935050506001600160a01b038216331490506117955760405162461bcd60e51b815260040161036990612431565b6001600160a01b0383166000908152609e602052604090205460011161067e576001600160a01b038084166000818152609e60205260408082208054948716835290822093909355908152908190555b609d548110156118a757836001600160a01b0316609d828154811061181a57634e487b7160e01b600052603260045260246000fd5b60009182526020909120600160029092020101546001600160a01b031614156118955782609d828154811061185f57634e487b7160e01b600052603260045260246000fd5b906000526020600020906002020160010160006101000a8154816001600160a01b0302191690836001600160a01b031602179055505b8061189f816128cc565b9150506117e5565b50505050565b6099546001600160a01b031681565b609b81815481106118cc57600080fd5b60009182526020909120600490910201805460018201546002830154600390930154919350919060ff8082169161010090041685565b6001600160e01b031981166301ffc9a760e01b14919050565b6106c58282611b6e565b60405163f7878c6960e01b81526000906001600160a01b0384169063f7878c699061195490859060040161235b565b60206040518083038186803b15801561196c57600080fd5b505afa158015611980573d6000803e3d6000fd5b505050506040513d601f19601f820116820180604052508101906119a49190612109565b9392505050565b6000806001600160a01b0383166119c157600080fd5b600080856001600160a01b031663365b98b2876001600160a01b031663eda7794e886040518263ffffffff1660e01b81526004016119ff919061235b565b60206040518083038186803b158015611a1757600080fd5b505afa158015611a2b573d6000803e3d6000fd5b505050506040513d601f19601f82011682018060405250810190611a4f91906121d9565b6040518263ffffffff1660e01b8152600401611a6b9190612394565b60a06040518083038186803b158015611a8357600080fd5b505afa158015611a97573d6000803e3d6000fd5b505050506040513d601f19601f82011682018060405250810190611abb91906120a8565b5092945091925050506001600160a01b0380831690861614611aef5760405162461bcd60e51b8152600401610369906124a1565b909590945092505050565b60006119a4828461283b565b3390565b611b148282610d4e565b6106c557611b2c816001600160a01b03166014611e07565b611b37836020611e07565b604051602001611b489291906122ec565b60408051601f198184030181529082905262461bcd60e51b82526103699160040161239d565b611b788282610d4e565b6106c55760008281526065602090815260408083206001600160a01b03851684529091529020805460ff19166001179055611bb1611b06565b6001600160a01b0316816001600160a01b0316837f2f8788117e7eff1d82e926ec794901d17c78024a50270940304540a733656f0d60405160405180910390a45050565b611bff8282610d4e565b156106c55760008281526065602090815260408083206001600160a01b03851684529091529020805460ff19169055611c36611b06565b6001600160a01b0316816001600160a01b0316837ff6391f5c32d9c69d2a47ea670b442974b53935d1edc7fd64eb21e047a839171b60405160405180910390a45050565b6000806000806000806000806000808b6001600160a01b031663339d50a58c6040518263ffffffff1660e01b8152600401611cb59190612394565b6101206040518083038186803b158015611cce57600080fd5b505afa158015611ce2573d6000803e3d6000fd5b505050506040513d601f19601f82011682018060405250810190611d06919061200c565b909192939495509091929394509091929350909150809850819950829550839650849750505050505082828287879950995099509950995050505050509295509295909350565b60006119a48284612872565b604051630a14439160e01b81526000906001600160a01b03841690630a1443919061195490859060040161235b565b6040516314f7ea9960e01b81526000906001600160a01b038416906314f7ea9990611db790859060040161239d565b60206040518083038186803b158015611dcf57600080fd5b505afa158015611de3573d6000803e3d6000fd5b505050506040513d601f19601f820116820180604052508101906119a491906121d9565b60606000611e16836002612853565b611e2190600261283b565b6001600160401b03811115611e4657634e487b7160e01b600052604160045260246000fd5b6040519080825280601f01601f191660200182016040528015611e70576020820181803683370190505b509050600360fc1b81600081518110611e9957634e487b7160e01b600052603260045260246000fd5b60200101906001600160f81b031916908160001a905350600f60fb1b81600181518110611ed657634e487b7160e01b600052603260045260246000fd5b60200101906001600160f81b031916908160001a9053506000611efa846002612853565b611f0590600161283b565b90505b6001811115611f99576f181899199a1a9b1b9c1cb0b131b232b360811b85600f1660108110611f4757634e487b7160e01b600052603260045260246000fd5b1a60f81b828281518110611f6b57634e487b7160e01b600052603260045260246000fd5b60200101906001600160f81b031916908160001a90535060049490941c93611f92816128b5565b9050611f08565b5083156119a45760405162461bcd60e51b8152600401610369906123d0565b600060208284031215611fc9578081fd5b81356119a4816128fd565b60008060408385031215611fe6578081fd5b8235611ff1816128fd565b91506020830135612001816128fd565b809150509250929050565b60008060008060008060008060006101208a8c03121561202a578485fd5b8951612035816128fd565b60208b0151909950612046816128fd565b8098505060408a0151965060608a0151955060808a0151945060a08a0151935060c08a015161207481612915565b60e08b015190935061208581612915565b6101008b015190925061209781612915565b809150509295985092959850929598565b600080600080600060a086880312156120bf578081fd5b85516120ca816128fd565b80955050602086015193506040860151925060608601516120ea81612915565b60808701519092506120fb81612915565b809150509295509295909350565b60006020828403121561211a578081fd5b81516119a481612915565b600060208284031215612136578081fd5b5035919050565b6000806040838503121561214f578182fd5b823591506020830135612001816128fd565b600060208284031215612172578081fd5b81356001600160e01b0319811681146119a4578182fd5b6000806000806080858703121561219e578384fd5b84356121a9816128fd565b935060208501356121b9816128fd565b925060408501356121c9816128fd565b9396929550929360600135925050565b6000602082840312156121ea578081fd5b5051919050565b60008060408385031215612203578182fd5b82359150602083013561200181612915565b60008060408385031215612227578182fd5b50508035926020909101359150565b60008060006060848603121561224a578081fd5b83359250602084013591506040840135612263816128fd565b809150509250925092565b60008060008060808587031215612283578182fd5b84359350602085013592506040850135915060608501356122a381612915565b939692955090935050565b600080600080600060a086880312156122c5578283fd5b8535945060208601359350604086013592506060860135915060808601356120fb81612915565b600076020b1b1b2b9b9a1b7b73a3937b61d1030b1b1b7bab73a1604d1b8252835161231e816017850160208801612889565b7001034b99036b4b9b9b4b733903937b6329607d1b601791840191820152835161234f816028840160208801612889565b01602801949350505050565b6001600160a01b0391909116815260200190565b6001600160a01b0392831681529116602082015260400190565b901515815260200190565b90815260200190565b60006020825282518060208401526123bc816040850160208701612889565b601f01601f19169190910160400192915050565b6020808252818101527f537472696e67733a20686578206c656e67746820696e73756666696369656e74604082015260600190565b6020808252601290820152711e5bdd481a185d99481b9bc81c995dd85c9960721b604082015260600190565b6020808252600990820152683337b93134b23232b760b91b604082015260600190565b6020808252600f908201526e63616d706169676e2061637469766560881b604082015260600190565b6020808252600a90820152696e6f742061637469766560b01b604082015260600190565b6020808252601390820152721d5cd95c88191bd95cc81b9bdd08195e1a5cdd606a1b604082015260600190565b6020808252600e908201526d616d6f756e7420746f6f206c6f7760901b604082015260600190565b6020808252601390820152721b9bdd081bdddb995c881bd9881c995dd85c99606a1b604082015260600190565b6020808252602e908201527f496e697469616c697a61626c653a20636f6e747261637420697320616c72656160408201526d191e481a5b9a5d1a585b1a5e995960921b606082015260800190565b6020808252601d908201527f72657761726420616c7265616479206d61726b65642061732073656e74000000604082015260600190565b6020808252600b908201526a686173206261636b65727360a81b604082015260600190565b6020808252600990820152681b9bdd08199bdd5b9960ba1b604082015260600190565b6020808252600f908201526e0c2dadeeadce840e8dede40d0d2ced608b1b604082015260600190565b6020808252600c908201526b7a65726f206164647265737360a01b604082015260600190565b6020808252600f908201526e3737ba1030b71030b8383937bb32b960891b604082015260600190565b6020808252601890820152771c995dd85c99081b9bdd0819195b1a5d995c9959081e595d60421b604082015260600190565b60208082526010908201526f61646d696e206f7220666163746f727960801b604082015260600190565b6020808252601190820152701d5cd95c881b9bdd081d995c9a599a5959607a1b604082015260600190565b6020808252600c908201526b6f7574206f662073746f636b60a01b604082015260600190565b6020808252602f908201527f416363657373436f6e74726f6c3a2063616e206f6e6c792072656e6f756e636560408201526e103937b632b9903337b91039b2b63360891b606082015260800190565b9182526001600160a01b0316602082015260400190565b9384526001600160a01b03929092166020840152151560408301521515606082015260800190565b92835290151560208301526001600160a01b0316604082015260600190565b92835260208301919091526001600160a01b0316604082015260600190565b94855260208501939093526040840191909152151560608301521515608082015260a00190565b958652602086019490945260408501929092526060840152151560808301526001600160a01b031660a082015260c00190565b6000821982111561284e5761284e6128e7565b500190565b600081600019048311821515161561286d5761286d6128e7565b500290565b600082821015612884576128846128e7565b500390565b60005b838110156128a457818101518382015260200161288c565b838111156118a75750506000910152565b6000816128c4576128c46128e7565b506000190190565b60006000198214156128e0576128e06128e7565b5060010190565b634e487b7160e01b600052601160045260246000fd5b6001600160a01b038116811461291257600080fd5b50565b801515811461291257600080fdfea264697066735822122052e3967949b68a97b5c234957f7606f4a1f58bbaa807693db1c5bf62cf985d9864736f6c63430008000033",
  "immutableReferences": {},
  "source": "// contracts/CampaignRewards.sol\n// SPDX-License-Identifier: UNLICENSED\npragma solidity >=0.4.22 <0.9.0;\n\nimport \"@openzeppelin/contracts-upgradeable/utils/math/SafeMathUpgradeable.sol\";\nimport \"@openzeppelin/contracts-upgradeable/proxy/utils/Initializable.sol\";\nimport \"@openzeppelin/contracts-upgradeable/security/ReentrancyGuardUpgradeable.sol\";\n\nimport \"./CampaignFactory.sol\";\nimport \"./Campaign.sol\";\n\nimport \"./utils/AccessControl.sol\";\nimport \"./interfaces/FactoryInterface.sol\";\nimport \"./libraries/contracts/CampaignFactoryLib.sol\";\nimport \"./interfaces/CampaignInterface.sol\";\nimport \"./libraries/contracts/CampaignLib.sol\";\n\ncontract CampaignRewards is Initializable, AccessControl {\n    using SafeMathUpgradeable for uint256;\n\n    /// @dev `Initializer Event`\n    event CampaignRewardOwnerSet(\n        uint256 indexed campaignId,\n        address owner,\n        address sender\n    );\n\n    /// @dev `Reward Events`\n    event RewardCreated(\n        uint256 indexed rewardId,\n        uint256 campaignId,\n        uint256 value,\n        uint256 deliveryDate,\n        uint256 stock,\n        bool active,\n        address sender\n    );\n    event RewardModified(\n        uint256 indexed rewardId,\n        uint256 campaignId,\n        uint256 value,\n        uint256 deliveryDate,\n        uint256 stock,\n        bool active,\n        address sender\n    );\n    event RewardStockIncreased(\n        uint256 indexed rewardId,\n        uint256 campaignId,\n        uint256 count,\n        address sender\n    );\n    event RewardDestroyed(\n        uint256 indexed rewardId,\n        uint256 campaignId,\n        address sender\n    );\n\n    /// @dev `Rward Recipient Events`\n    event RewardRecipientAdded(\n        uint256 indexed rewardId,\n        uint256 campaignId,\n        uint256 amount,\n        address sender\n    );\n    event RewarderApproval(\n        uint256 indexed rewardRecipientId,\n        uint256 campaignId,\n        bool status,\n        address sender\n    );\n    event RewardRecipientApproval(\n        uint256 indexed rewardRecipientId,\n        uint256 campaignId,\n        address sender\n    );\n\n    CampaignFactoryInterface private campaignFactoryContract;\n    CampaignInterface private campaignContract;\n\n    address public root;\n    uint256 public campaignID;\n\n    /// @dev `Reward`\n    struct Reward {\n        uint256 value;\n        uint256 deliveryDate;\n        uint256 stock;\n        bool exists;\n        bool active;\n    }\n    Reward[] public rewards;\n    mapping(uint256 => uint256) public rewardToRewardRecipientCount; // number of users eligible per reward\n\n    /// @dev `RewardRecipient`\n    struct RewardRecipient {\n        uint256 rewardId;\n        address user;\n        bool deliveryConfirmedByCampaign;\n        bool deliveryConfirmedByUser;\n    }\n    RewardRecipient[] public rewardRecipients;\n    mapping(address => uint256) public userRewardCount; // number of rewards owned by a user\n\n    /// @dev Ensures caller is factory or campaign owner\n    modifier adminOrFactory() {\n        require(\n            CampaignFactoryLib.canManageCampaigns(\n                campaignFactoryContract,\n                msg.sender\n            ) || hasRole(DEFAULT_ADMIN_ROLE, msg.sender),\n            \"admin or factory\"\n        );\n        _;\n    }\n\n    /// @dev Ensures the campaign is set to active by campaign owner and approved by factory\n    modifier campaignIsActive() {\n        bool campaignIsApproved;\n        bool campaignIsEnabled;\n        (, , , campaignIsApproved, campaignIsEnabled) = CampaignFactoryLib\n            .campaignInfo(campaignFactoryContract, campaignID);\n\n        require(campaignIsApproved && campaignIsEnabled, \"campaign active\");\n        _;\n    }\n\n    /// @dev Ensures a user is verified\n    modifier userIsVerified(address _user) {\n        bool verified;\n        (, verified) = CampaignFactoryLib.userInfo(\n            campaignFactoryContract,\n            _user\n        );\n        require(verified, \"user not verified\");\n        _;\n    }\n\n    /// @dev Ensures caller is a registered campaign contract from factory\n    modifier onlyRegisteredCampaigns() {\n        address campaignAddress;\n\n        (campaignAddress, , , , ) = CampaignFactoryLib.campaignInfo(\n            campaignFactoryContract,\n            campaignID\n        );\n\n        require(campaignAddress == msg.sender, \"forbidden\");\n        _;\n    }\n\n    /**\n     * @dev        Constructor\n     * @param      _campaignFactory     Address of factory\n     * @param      _campaignOwner                Address of campaign owner\n     * @param      _campaignId          ID of campaign reward contract belongs to\n     */\n    function __CampaignRewards_init(\n        CampaignFactory _campaignFactory,\n        Campaign _campaign,\n        address _campaignOwner,\n        uint256 _campaignId\n    ) public initializer {\n        require(address(_campaignOwner) != address(0), \"zero address\");\n\n        _setupRole(DEFAULT_ADMIN_ROLE, _campaignOwner);\n\n        campaignFactoryContract = CampaignFactoryInterface(\n            address(_campaignFactory)\n        );\n        campaignContract = CampaignInterface(address(_campaign));\n\n        campaignID = _campaignId;\n        root = _campaignOwner;\n\n        emit CampaignRewardOwnerSet(_campaignId, root, msg.sender);\n    }\n\n    /**\n     * @dev        Creates rewards contributors can attain\n     * @param      _value        Reward cost\n     * @param      _deliveryDate Time in which reward will be deliverd to contriutors\n     * @param      _stock        Quantity available for dispatch\n     * @param      _active       Indicates if contributors can attain the reward\n     */\n    function createReward(\n        uint256 _value,\n        uint256 _deliveryDate,\n        uint256 _stock,\n        bool _active\n    ) external adminOrFactory userIsVerified(msg.sender) {\n        require(\n            _value >\n                CampaignFactoryLib.getCampaignFactoryConfig(\n                    campaignFactoryContract,\n                    \"minimumContributionAllowed\"\n                ),\n            \"amount too low\"\n        );\n        require(\n            _value <\n                CampaignFactoryLib.getCampaignFactoryConfig(\n                    campaignFactoryContract,\n                    \"maximumContributionAllowed\"\n                ),\n            \"amount too high\"\n        );\n        rewards.push(Reward(_value, _deliveryDate, _stock, true, _active));\n\n        emit RewardCreated(\n            rewards.length.sub(1),\n            campaignID,\n            _value,\n            _deliveryDate,\n            _stock,\n            _active,\n            msg.sender\n        );\n    }\n\n    /**\n     * @dev        Assigns a reward to a user after payment from parent contract Campaign\n     * @param      _rewardId     ID of the reward being assigned\n     * @param      _amount       Amount being paid by the user\n     * @param      _user         Address of user reward is being assigned to\n     */\n    function assignReward(\n        uint256 _rewardId,\n        uint256 _amount,\n        address _user\n    ) external onlyRegisteredCampaigns userIsVerified(_user) {\n        require(_amount >= rewards[_rewardId].value, \"amount too low\");\n        require(rewards[_rewardId].stock >= 1, \"out of stock\");\n        require(rewards[_rewardId].exists, \"not found\");\n        require(rewards[_rewardId].active, \"not active\");\n\n        rewardRecipients.push(RewardRecipient(_rewardId, _user, false, false));\n        userRewardCount[_user] = userRewardCount[_user].add(1);\n        rewardToRewardRecipientCount[_rewardId] = rewardToRewardRecipientCount[\n            _rewardId\n        ].add(1);\n\n        emit RewardRecipientAdded(_rewardId, campaignID, _amount, _user);\n    }\n\n    /**\n     * @dev        Modifies a reward by id\n     * @param      _rewardId        Reward unique id\n     * @param      _value           Reward cost\n     * @param      _deliveryDate    Time in which reward will be deliverd to contriutors\n     * @param      _stock           Quantity available for dispatch\n     * @param      _active          Indicates if contributors can attain the reward\n     */\n    function modifyReward(\n        uint256 _rewardId,\n        uint256 _value,\n        uint256 _deliveryDate,\n        uint256 _stock,\n        bool _active\n    ) external adminOrFactory userIsVerified(msg.sender) {\n        /**\n         * To modify a reward:\n         * check reward has no backers\n         * check reward exists\n         */\n        require(rewards[_rewardId].exists, \"not found\");\n        require(rewardToRewardRecipientCount[_rewardId] < 1, \"has backers\");\n        require(\n            _value >\n                CampaignFactoryLib.getCampaignFactoryConfig(\n                    campaignFactoryContract,\n                    \"minimumContributionAllowed\"\n                ),\n            \"amount too low\"\n        );\n        require(\n            _value <\n                CampaignFactoryLib.getCampaignFactoryConfig(\n                    campaignFactoryContract,\n                    \"maximumContributionAllowed\"\n                ),\n            \"amount too high\"\n        );\n\n        rewards[_rewardId].value = _value;\n        rewards[_rewardId].deliveryDate = _deliveryDate;\n        rewards[_rewardId].stock = _stock;\n        rewards[_rewardId].active = _active;\n\n        emit RewardModified(\n            _rewardId,\n            campaignID,\n            _value,\n            _deliveryDate,\n            _stock,\n            _active,\n            msg.sender\n        );\n    }\n\n    /**\n     * @dev        Increases a reward stock count\n     * @param      _rewardId        Reward unique id\n     * @param      _count           Stock count to increase by\n     */\n    function increaseRewardStock(uint256 _rewardId, uint256 _count)\n        external\n        adminOrFactory\n        userIsVerified(msg.sender)\n    {\n        require(rewards[_rewardId].exists, \"not found\");\n        rewards[_rewardId].stock = rewards[_rewardId].stock.add(_count);\n\n        emit RewardStockIncreased(_rewardId, campaignID, _count, msg.sender);\n    }\n\n    /**\n     * @dev        Deletes a reward by id\n     * @param      _rewardId    Reward unique id\n     */\n    function destroyReward(uint256 _rewardId)\n        external\n        adminOrFactory\n        userIsVerified(msg.sender)\n    {\n        // check reward has no backers\n        require(rewardToRewardRecipientCount[_rewardId] < 1, \"has backers\");\n        require(rewards[_rewardId].exists, \"not found\");\n\n        delete rewards[_rewardId];\n\n        emit RewardDestroyed(_rewardId, campaignID, msg.sender);\n    }\n\n    /**\n     * @dev        Called by the campaign owner to indicate they delivered the reward to the rewardRecipient\n     * @param      _rewardRecipientId   ID to struct containing reward and user to be rewarded\n     * @param      _status              Indicates if the delivery was successful or not\n     */\n    function campaignSentReward(uint256 _rewardRecipientId, bool _status)\n        external\n        campaignIsActive\n        userIsVerified(msg.sender)\n        adminOrFactory\n    {\n        require(\n            rewardToRewardRecipientCount[\n                rewardRecipients[_rewardRecipientId].rewardId\n            ] >= 1\n        );\n\n        rewardRecipients[_rewardRecipientId]\n            .deliveryConfirmedByCampaign = _status;\n        emit RewarderApproval(\n            _rewardRecipientId,\n            campaignID,\n            _status,\n            msg.sender\n        );\n    }\n\n    /**\n     * @dev        Called by a user eligible for rewards to indicate they received their reward\n     * @param      _rewardRecipientId  ID to struct containing reward and user to be rewarded\n     */\n    function userReceivedCampaignReward(uint256 _rewardRecipientId)\n        external\n        campaignIsActive\n        userIsVerified(msg.sender)\n    {\n        require(\n            CampaignLib.isAnApprover(campaignContract, msg.sender),\n            \"not an approver\"\n        );\n        require(\n            rewardRecipients[_rewardRecipientId].deliveryConfirmedByCampaign,\n            \"reward not delivered yet\"\n        );\n        require(\n            !rewardRecipients[_rewardRecipientId].deliveryConfirmedByUser,\n            \"reward already marked as sent\"\n        );\n        require(\n            rewardRecipients[_rewardRecipientId].user == msg.sender,\n            \"not owner of reward\"\n        );\n\n        require(userRewardCount[msg.sender] >= 1, \"you have no reward\");\n\n        rewardRecipients[_rewardRecipientId].deliveryConfirmedByUser = true;\n        emit RewardRecipientApproval(\n            _rewardRecipientId,\n            campaignID,\n            msg.sender\n        );\n    }\n\n    /**\n     * @dev        Renounces rewards owned by the specified user\n     * @param      _user        Address of user who rewards are being renounced\n     */\n    function renounceRewards(address _user) external onlyRegisteredCampaigns {\n        if (userRewardCount[_user] >= 1) {\n            userRewardCount[_user] = 0;\n\n            // deduct rewardRecipients count\n            for (uint256 index = 0; index < rewardRecipients.length; index++) {\n                rewardToRewardRecipientCount[\n                    rewardRecipients[index].rewardId\n                ] = rewardToRewardRecipientCount[\n                    rewardRecipients[index].rewardId\n                ].sub(1);\n            }\n        }\n    }\n\n    /**\n     * @dev        Transfers rewards from the old owner to a new owner\n     * @param      _oldAddress      Address of previous owner of rewards\n     * @param      _newAddress      Address of new owner rewards are being transferred to\n     */\n    function transferRewards(address _oldAddress, address _newAddress)\n        external\n        onlyRegisteredCampaigns\n    {\n        if (userRewardCount[_oldAddress] >= 1) {\n            userRewardCount[_newAddress] = userRewardCount[_oldAddress];\n            userRewardCount[_oldAddress] = 0;\n\n            for (uint256 index = 0; index < rewardRecipients.length; index++) {\n                if (rewardRecipients[index].user == _oldAddress) {\n                    rewardRecipients[index].user = _newAddress;\n                }\n            }\n        }\n    }\n}\n",
  "sourcePath": "/Users/ngcx/Desktop/Web Dev/DApps/crowdship/crowdship-v1-core/contracts/CampaignRewards.sol",
  "compiler": {
    "name": "solc",
    "version": "0.8.0+commit.c7dfd78e.Emscripten.clang"
  },
  "schemaVersion": "3.4.1",
  "updatedAt": "2021-09-23T16:35:06.759Z",
  "devdoc": {
    "events": {
      "CampaignRewardOwnerSet(uint256,address,address)": {
        "details": "`Initializer Event`"
      },
      "RewardCreated(uint256,uint256,uint256,uint256,uint256,bool,address)": {
        "details": "`Reward Events`"
      },
      "RewardRecipientAdded(uint256,uint256,uint256,address)": {
        "details": "`Rward Recipient Events`"
      }
    },
    "kind": "dev",
    "methods": {
      "__CampaignRewards_init(address,address,address,uint256)": {
        "details": "Constructor",
        "params": {
          "_campaignFactory": "Address of factory",
          "_campaignId": "ID of campaign reward contract belongs to",
          "_campaignOwner": "Address of campaign owner"
        }
      },
      "assignReward(uint256,uint256,address)": {
        "details": "Assigns a reward to a user after payment from parent contract Campaign",
        "params": {
          "_amount": "Amount being paid by the user",
          "_rewardId": "ID of the reward being assigned",
          "_user": "Address of user reward is being assigned to"
        }
      },
      "campaignSentReward(uint256,bool)": {
        "details": "Called by the campaign owner to indicate they delivered the reward to the rewardRecipient",
        "params": {
          "_rewardRecipientId": "ID to struct containing reward and user to be rewarded",
          "_status": "Indicates if the delivery was successful or not"
        }
      },
      "createReward(uint256,uint256,uint256,bool)": {
        "details": "Creates rewards contributors can attain",
        "params": {
          "_active": "Indicates if contributors can attain the reward",
          "_deliveryDate": "Time in which reward will be deliverd to contriutors",
          "_stock": "Quantity available for dispatch",
          "_value": "Reward cost"
        }
      },
      "destroyReward(uint256)": {
        "details": "Deletes a reward by id",
        "params": {
          "_rewardId": "Reward unique id"
        }
      },
      "getRoleAdmin(bytes32)": {
        "details": "Returns the admin role that controls `role`. See {grantRole} and {revokeRole}. To change a role's admin, use {_setRoleAdmin}."
      },
      "grantRole(bytes32,address)": {
        "details": "Grants `role` to `account`. If `account` had not been already granted `role`, emits a {RoleGranted} event. Requirements: - the caller must have ``role``'s admin role."
      },
      "hasRole(bytes32,address)": {
        "details": "Returns `true` if `account` has been granted `role`."
      },
      "increaseRewardStock(uint256,uint256)": {
        "details": "Increases a reward stock count",
        "params": {
          "_count": "Stock count to increase by",
          "_rewardId": "Reward unique id"
        }
      },
      "modifyReward(uint256,uint256,uint256,uint256,bool)": {
        "details": "Modifies a reward by id",
        "params": {
          "_active": "Indicates if contributors can attain the reward",
          "_deliveryDate": "Time in which reward will be deliverd to contriutors",
          "_rewardId": "Reward unique id",
          "_stock": "Quantity available for dispatch",
          "_value": "Reward cost"
        }
      },
      "renounceRewards(address)": {
        "details": "Renounces rewards owned by the specified user",
        "params": {
          "_user": "Address of user who rewards are being renounced"
        }
      },
      "renounceRole(bytes32,address)": {
        "details": "Revokes `role` from the calling account. Roles are often managed via {grantRole} and {revokeRole}: this function's purpose is to provide a mechanism for accounts to lose their privileges if they are compromised (such as when a trusted device is misplaced). If the calling account had been granted `role`, emits a {RoleRevoked} event. Requirements: - the caller must be `account`."
      },
      "revokeRole(bytes32,address)": {
        "details": "Revokes `role` from `account`. If `account` had been granted `role`, emits a {RoleRevoked} event. Requirements: - the caller must have ``role``'s admin role."
      },
      "supportsInterface(bytes4)": {
        "details": "See {IERC165-supportsInterface}."
      },
      "transferRewards(address,address)": {
        "details": "Transfers rewards from the old owner to a new owner",
        "params": {
          "_newAddress": "Address of new owner rewards are being transferred to",
          "_oldAddress": "Address of previous owner of rewards"
        }
      },
      "userReceivedCampaignReward(uint256)": {
        "details": "Called by a user eligible for rewards to indicate they received their reward",
        "params": {
          "_rewardRecipientId": "ID to struct containing reward and user to be rewarded"
        }
      }
    },
    "version": 1
  },
  "userdoc": {
    "kind": "user",
    "methods": {},
    "version": 1
  }
}